{
  "contractName": "MetaphorsToken",
  "abi": [
    {
      "constant": true,
      "inputs": [
        {
          "name": "interfaceId",
          "type": "bytes4"
        }
      ],
      "name": "supportsInterface",
      "outputs": [
        {
          "name": "",
          "type": "bool"
        }
      ],
      "payable": false,
      "stateMutability": "view",
      "type": "function"
    },
    {
      "constant": true,
      "inputs": [],
      "name": "name",
      "outputs": [
        {
          "name": "",
          "type": "string"
        }
      ],
      "payable": false,
      "stateMutability": "view",
      "type": "function"
    },
    {
      "constant": true,
      "inputs": [
        {
          "name": "tokenId",
          "type": "uint256"
        }
      ],
      "name": "getApproved",
      "outputs": [
        {
          "name": "",
          "type": "address"
        }
      ],
      "payable": false,
      "stateMutability": "view",
      "type": "function"
    },
    {
      "constant": false,
      "inputs": [
        {
          "name": "to",
          "type": "address"
        },
        {
          "name": "tokenId",
          "type": "uint256"
        }
      ],
      "name": "approve",
      "outputs": [],
      "payable": false,
      "stateMutability": "nonpayable",
      "type": "function"
    },
    {
      "constant": true,
      "inputs": [],
      "name": "totalSupply",
      "outputs": [
        {
          "name": "",
          "type": "uint256"
        }
      ],
      "payable": false,
      "stateMutability": "view",
      "type": "function"
    },
    {
      "constant": false,
      "inputs": [
        {
          "name": "from",
          "type": "address"
        },
        {
          "name": "to",
          "type": "address"
        },
        {
          "name": "tokenId",
          "type": "uint256"
        }
      ],
      "name": "transferFrom",
      "outputs": [],
      "payable": false,
      "stateMutability": "nonpayable",
      "type": "function"
    },
    {
      "constant": true,
      "inputs": [
        {
          "name": "owner",
          "type": "address"
        },
        {
          "name": "index",
          "type": "uint256"
        }
      ],
      "name": "tokenOfOwnerByIndex",
      "outputs": [
        {
          "name": "",
          "type": "uint256"
        }
      ],
      "payable": false,
      "stateMutability": "view",
      "type": "function"
    },
    {
      "constant": true,
      "inputs": [],
      "name": "getAllTokenInfoNames",
      "outputs": [
        {
          "name": "",
          "type": "string[]"
        }
      ],
      "payable": false,
      "stateMutability": "view",
      "type": "function"
    },
    {
      "constant": false,
      "inputs": [
        {
          "name": "from",
          "type": "address"
        },
        {
          "name": "to",
          "type": "address"
        },
        {
          "name": "tokenId",
          "type": "uint256"
        }
      ],
      "name": "safeTransferFrom",
      "outputs": [],
      "payable": false,
      "stateMutability": "nonpayable",
      "type": "function"
    },
    {
      "constant": true,
      "inputs": [
        {
          "name": "index",
          "type": "uint256"
        }
      ],
      "name": "tokenByIndex",
      "outputs": [
        {
          "name": "",
          "type": "uint256"
        }
      ],
      "payable": false,
      "stateMutability": "view",
      "type": "function"
    },
    {
      "constant": false,
      "inputs": [
        {
          "name": "_name",
          "type": "string"
        },
        {
          "name": "_totalCount",
          "type": "uint16"
        },
        {
          "name": "_percentage",
          "type": "uint8"
        },
        {
          "name": "_maxDurability",
          "type": "uint8"
        },
        {
          "name": "_isFreeToken",
          "type": "bool"
        }
      ],
      "name": "createTokenInfo",
      "outputs": [],
      "payable": false,
      "stateMutability": "nonpayable",
      "type": "function"
    },
    {
      "constant": true,
      "inputs": [
        {
          "name": "tokenId",
          "type": "uint256"
        }
      ],
      "name": "ownerOf",
      "outputs": [
        {
          "name": "",
          "type": "address"
        }
      ],
      "payable": false,
      "stateMutability": "view",
      "type": "function"
    },
    {
      "constant": true,
      "inputs": [
        {
          "name": "owner",
          "type": "address"
        }
      ],
      "name": "balanceOf",
      "outputs": [
        {
          "name": "",
          "type": "uint256"
        }
      ],
      "payable": false,
      "stateMutability": "view",
      "type": "function"
    },
    {
      "constant": true,
      "inputs": [
        {
          "name": "_name",
          "type": "string"
        }
      ],
      "name": "getTokenInfo",
      "outputs": [
        {
          "name": "",
          "type": "string"
        },
        {
          "name": "",
          "type": "uint16"
        },
        {
          "name": "",
          "type": "uint8"
        },
        {
          "name": "",
          "type": "uint8"
        },
        {
          "name": "",
          "type": "bool"
        }
      ],
      "payable": false,
      "stateMutability": "view",
      "type": "function"
    },
    {
      "constant": true,
      "inputs": [],
      "name": "symbol",
      "outputs": [
        {
          "name": "",
          "type": "string"
        }
      ],
      "payable": false,
      "stateMutability": "view",
      "type": "function"
    },
    {
      "constant": false,
      "inputs": [
        {
          "name": "to",
          "type": "address"
        },
        {
          "name": "approved",
          "type": "bool"
        }
      ],
      "name": "setApprovalForAll",
      "outputs": [],
      "payable": false,
      "stateMutability": "nonpayable",
      "type": "function"
    },
    {
      "constant": false,
      "inputs": [
        {
          "name": "_name",
          "type": "string"
        },
        {
          "name": "_totalCount",
          "type": "uint16"
        },
        {
          "name": "_percentage",
          "type": "uint8"
        }
      ],
      "name": "editTokenInfo",
      "outputs": [],
      "payable": false,
      "stateMutability": "nonpayable",
      "type": "function"
    },
    {
      "constant": false,
      "inputs": [
        {
          "name": "from",
          "type": "address"
        },
        {
          "name": "to",
          "type": "address"
        },
        {
          "name": "tokenId",
          "type": "uint256"
        },
        {
          "name": "_data",
          "type": "bytes"
        }
      ],
      "name": "safeTransferFrom",
      "outputs": [],
      "payable": false,
      "stateMutability": "nonpayable",
      "type": "function"
    },
    {
      "constant": true,
      "inputs": [
        {
          "name": "tokenId",
          "type": "uint256"
        }
      ],
      "name": "tokenURI",
      "outputs": [
        {
          "name": "",
          "type": "string"
        }
      ],
      "payable": false,
      "stateMutability": "view",
      "type": "function"
    },
    {
      "constant": true,
      "inputs": [
        {
          "name": "owner",
          "type": "address"
        },
        {
          "name": "operator",
          "type": "address"
        }
      ],
      "name": "isApprovedForAll",
      "outputs": [
        {
          "name": "",
          "type": "bool"
        }
      ],
      "payable": false,
      "stateMutability": "view",
      "type": "function"
    },
    {
      "inputs": [],
      "payable": false,
      "stateMutability": "nonpayable",
      "type": "constructor"
    },
    {
      "anonymous": false,
      "inputs": [
        {
          "indexed": false,
          "name": "sender",
          "type": "address"
        },
        {
          "indexed": false,
          "name": "id",
          "type": "uint256"
        },
        {
          "indexed": false,
          "name": "name",
          "type": "string"
        },
        {
          "indexed": false,
          "name": "nonce",
          "type": "uint256"
        }
      ],
      "name": "CreateToken",
      "type": "event"
    },
    {
      "anonymous": false,
      "inputs": [
        {
          "indexed": false,
          "name": "sender",
          "type": "address"
        },
        {
          "indexed": false,
          "name": "name",
          "type": "string"
        },
        {
          "indexed": false,
          "name": "durability",
          "type": "uint8"
        }
      ],
      "name": "UseToken",
      "type": "event"
    },
    {
      "anonymous": false,
      "inputs": [
        {
          "indexed": true,
          "name": "from",
          "type": "address"
        },
        {
          "indexed": true,
          "name": "to",
          "type": "address"
        },
        {
          "indexed": true,
          "name": "tokenId",
          "type": "uint256"
        }
      ],
      "name": "Transfer",
      "type": "event"
    },
    {
      "anonymous": false,
      "inputs": [
        {
          "indexed": true,
          "name": "owner",
          "type": "address"
        },
        {
          "indexed": true,
          "name": "approved",
          "type": "address"
        },
        {
          "indexed": true,
          "name": "tokenId",
          "type": "uint256"
        }
      ],
      "name": "Approval",
      "type": "event"
    },
    {
      "anonymous": false,
      "inputs": [
        {
          "indexed": true,
          "name": "owner",
          "type": "address"
        },
        {
          "indexed": true,
          "name": "operator",
          "type": "address"
        },
        {
          "indexed": false,
          "name": "approved",
          "type": "bool"
        }
      ],
      "name": "ApprovalForAll",
      "type": "event"
    },
    {
      "anonymous": false,
      "inputs": [
        {
          "indexed": false,
          "name": "name",
          "type": "string"
        },
        {
          "indexed": false,
          "name": "totalCount",
          "type": "uint16"
        },
        {
          "indexed": false,
          "name": "percentage",
          "type": "uint8"
        },
        {
          "indexed": false,
          "name": "maxDurability",
          "type": "uint8"
        },
        {
          "indexed": false,
          "name": "isFreeToken",
          "type": "bool"
        }
      ],
      "name": "CreateTokenInfo",
      "type": "event"
    },
    {
      "anonymous": false,
      "inputs": [
        {
          "indexed": false,
          "name": "name",
          "type": "string"
        },
        {
          "indexed": false,
          "name": "totalCount",
          "type": "uint16"
        },
        {
          "indexed": false,
          "name": "percentage",
          "type": "uint8"
        }
      ],
      "name": "EditTokenInfo",
      "type": "event"
    },
    {
      "constant": false,
      "inputs": [
        {
          "name": "_name",
          "type": "string"
        }
      ],
      "name": "transferToOwner",
      "outputs": [],
      "payable": true,
      "stateMutability": "payable",
      "type": "function"
    },
    {
      "constant": false,
      "inputs": [
        {
          "name": "_name",
          "type": "string"
        }
      ],
      "name": "createToken",
      "outputs": [],
      "payable": false,
      "stateMutability": "nonpayable",
      "type": "function"
    },
    {
      "constant": false,
      "inputs": [
        {
          "name": "_name",
          "type": "string"
        }
      ],
      "name": "useToken",
      "outputs": [],
      "payable": false,
      "stateMutability": "nonpayable",
      "type": "function"
    },
    {
      "constant": false,
      "inputs": [
        {
          "name": "_name",
          "type": "string"
        },
        {
          "name": "_imageURI",
          "type": "string"
        }
      ],
      "name": "editTokenImage",
      "outputs": [],
      "payable": false,
      "stateMutability": "nonpayable",
      "type": "function"
    },
    {
      "constant": true,
      "inputs": [
        {
          "name": "_user",
          "type": "address"
        }
      ],
      "name": "getAllTokenNamesOfUser",
      "outputs": [
        {
          "name": "",
          "type": "string[]"
        }
      ],
      "payable": false,
      "stateMutability": "view",
      "type": "function"
    },
    {
      "constant": true,
      "inputs": [
        {
          "name": "_name",
          "type": "string"
        }
      ],
      "name": "getTokenCount",
      "outputs": [
        {
          "name": "",
          "type": "uint16"
        }
      ],
      "payable": false,
      "stateMutability": "view",
      "type": "function"
    },
    {
      "constant": false,
      "inputs": [
        {
          "name": "_id",
          "type": "uint256"
        },
        {
          "name": "_from",
          "type": "address"
        },
        {
          "name": "_to",
          "type": "address"
        }
      ],
      "name": "removeTokenInList",
      "outputs": [],
      "payable": false,
      "stateMutability": "nonpayable",
      "type": "function"
    },
    {
      "constant": true,
      "inputs": [
        {
          "name": "_id",
          "type": "uint256"
        }
      ],
      "name": "getToken",
      "outputs": [
        {
          "name": "",
          "type": "string"
        },
        {
          "name": "",
          "type": "uint8"
        },
        {
          "name": "",
          "type": "string"
        }
      ],
      "payable": false,
      "stateMutability": "view",
      "type": "function"
    },
    {
      "constant": true,
      "inputs": [
        {
          "name": "_user",
          "type": "address"
        },
        {
          "name": "_name",
          "type": "string"
        }
      ],
      "name": "getTokenId",
      "outputs": [
        {
          "name": "",
          "type": "uint256"
        }
      ],
      "payable": false,
      "stateMutability": "view",
      "type": "function"
    }
  ],
  "bytecode": "0x6080604052600080553480156200001557600080fd5b506040805190810160405280600e81526020017f4d65746170686f7273546f6b656e0000000000000000000000000000000000008152506040805190810160405280600381526020017f4d50540000000000000000000000000000000000000000000000000000000000815250818133600160006101000a81548173ffffffffffffffffffffffffffffffffffffffff021916908373ffffffffffffffffffffffffffffffffffffffff160217905550620001026301ffc9a77c010000000000000000000000000000000000000000000000000000000002620001fd640100000000026401000000009004565b6200013f6380ac58cd7c010000000000000000000000000000000000000000000000000000000002620001fd640100000000026401000000009004565b6200017c63780e9d637c010000000000000000000000000000000000000000000000000000000002620001fd640100000000026401000000009004565b81600d908051906020019062000194929190620002f4565b5080600e9080519060200190620001ad929190620002f4565b50620001eb635b5e139f7c010000000000000000000000000000000000000000000000000000000002620001fd640100000000026401000000009004565b505050506000601081905550620003fc565b63ffffffff7c010000000000000000000000000000000000000000000000000000000002817bffffffffffffffffffffffffffffffffffffffffffffffffffffffff19161415151562000287576040517f08c379a00000000000000000000000000000000000000000000000000000000081526004016200027e90620003da565b60405180910390fd5b600160046000837bffffffffffffffffffffffffffffffffffffffffffffffffffffffff19167bffffffffffffffffffffffffffffffffffffffffffffffffffffffff1916815260200190815260200160002060006101000a81548160ff02191690831515021790555050565b828054600181600116156101000203166002900490600052602060002090601f016020900481019282601f106200033757805160ff191683800117855562000368565b8280016001018555821562000368579182015b82811115620003675782518255916020019190600101906200034a565b5b5090506200037791906200037b565b5090565b620003a091905b808211156200039c57600081600090555060010162000382565b5090565b90565b6000601c82527f4552433136353a20696e76616c696420696e74657266616365206964000000006020830152604082019050919050565b60006020820190508181036000830152620003f581620003a3565b9050919050565b615fa3806200040c6000396000f3fe608060405260043610610175576000357c0100000000000000000000000000000000000000000000000000000000900463ffffffff16806301ffc9a71461017a57806306fdde03146101b7578063081812fc146101e2578063095ea7b31461021f57806318160ddd1461024857806323b872dd146102735780632b05e7eb1461029c5780632f745c59146102d957806337840d9e146103165780633c8ce3ba1461034157806342842e0e1461037e57806345576f94146103a75780634f6ccce7146103d057806356572a591461040d57806358423335146104365780636352211e1461045257806370a082311461048f5780638467c9be146104cc5780638e0ad1cc146104f557806395d89b4114610536578063a22cb46514610561578063ac228c721461058a578063b88d4fde146105b3578063c87b56dd146105dc578063c89bd80914610619578063d0ea0b0d14610642578063d52fcd281461066b578063e4b50cb8146106a8578063e985e9c5146106e7575b600080fd5b34801561018657600080fd5b506101a1600480360361019c9190810190614b56565b610724565b6040516101ae9190615893565b60405180910390f35b3480156101c357600080fd5b506101cc61078c565b6040516101d991906158ae565b60405180910390f35b3480156101ee57600080fd5b5061020960048036036102049190810190614d4b565b61082e565b6040516102169190615780565b60405180910390f35b34801561022b57600080fd5b5061024660048036036102419190810190614b1a565b6108b5565b005b34801561025457600080fd5b5061025d610a66565b60405161026a9190615d28565b60405180910390f35b34801561027f57600080fd5b5061029a600480360361029591908101906149c0565b610a73565b005b3480156102a857600080fd5b506102c360048036036102be919081019061495b565b610ace565b6040516102d09190615871565b60405180910390f35b3480156102e557600080fd5b5061030060048036036102fb9190810190614b1a565b610bf6565b60405161030d9190615d28565b60405180910390f35b34801561032257600080fd5b5061032b610ca3565b6040516103389190615871565b60405180910390f35b34801561034d57600080fd5b5061036860048036036103639190810190614ba8565b610d8c565b6040516103759190615d0d565b60405180910390f35b34801561038a57600080fd5b506103a560048036036103a091908101906149c0565b610e0f565b005b3480156103b357600080fd5b506103ce60048036036103c99190810190614ba8565b610e30565b005b3480156103dc57600080fd5b506103f760048036036103f29190810190614d4b565b6114df565b6040516104049190615d28565b60405180910390f35b34801561041957600080fd5b50610434600480360361042f9190810190614cbc565b61154d565b005b610450600480360361044b9190810190614ba8565b611888565b005b34801561045e57600080fd5b5061047960048036036104749190810190614d4b565b611aac565b6040516104869190615780565b60405180910390f35b34801561049b57600080fd5b506104b660048036036104b1919081019061495b565b611b60565b6040516104c39190615d28565b60405180910390f35b3480156104d857600080fd5b506104f360048036036104ee9190810190614ba8565b611c21565b005b34801561050157600080fd5b5061051c60048036036105179190810190614ba8565b612035565b60405161052d95949392919061590e565b60405180910390f35b34801561054257600080fd5b5061054b61234b565b60405161055891906158ae565b60405180910390f35b34801561056d57600080fd5b5061058860048036036105839190810190614a8a565b6123ed565b005b34801561059657600080fd5b506105b160048036036105ac9190810190614c55565b61255b565b005b3480156105bf57600080fd5b506105da60048036036105d59190810190614a0f565b61277f565b005b3480156105e857600080fd5b5061060360048036036105fe9190810190614d4b565b6127dd565b60405161061091906158ae565b60405180910390f35b34801561062557600080fd5b50610640600480360361063b9190810190614d74565b6128dc565b005b34801561064e57600080fd5b5061066960048036036106649190810190614be9565b612d0d565b005b34801561067757600080fd5b50610692600480360361068d9190810190614ac6565b612f66565b60405161069f9190615d28565b60405180910390f35b3480156106b457600080fd5b506106cf60048036036106ca9190810190614d4b565b613019565b6040516106de93929190615968565b60405180910390f35b3480156106f357600080fd5b5061070e60048036036107099190810190614984565b6131b4565b60405161071b9190615893565b60405180910390f35b600060046000837bffffffffffffffffffffffffffffffffffffffffffffffffffffffff19167bffffffffffffffffffffffffffffffffffffffffffffffffffffffff1916815260200190815260200160002060009054906101000a900460ff169050919050565b6060600d8054600181600116156101000203166002900480601f0160208091040260200160405190810160405280929190818152602001828054600181600116156101000203166002900480156108245780601f106107f957610100808354040283529160200191610824565b820191906000526020600020905b81548152906001019060200180831161080757829003601f168201915b5050505050905090565b600061083982613248565b151561087a576040517f08c379a000000000000000000000000000000000000000000000000000000000815260040161087190615b8d565b60405180910390fd5b6006600083815260200190815260200160002060009054906101000a900473ffffffffffffffffffffffffffffffffffffffff169050919050565b60006108c082611aac565b90508073ffffffffffffffffffffffffffffffffffffffff168373ffffffffffffffffffffffffffffffffffffffff1614151515610933576040517f08c379a000000000000000000000000000000000000000000000000000000000815260040161092a90615bed565b60405180910390fd5b8073ffffffffffffffffffffffffffffffffffffffff163373ffffffffffffffffffffffffffffffffffffffff161480610973575061097281336131b4565b5b15156109b4576040517f08c379a00000000000000000000000000000000000000000000000000000000081526004016109ab90615b0d565b60405180910390fd5b826006600084815260200190815260200160002060006101000a81548173ffffffffffffffffffffffffffffffffffffffff021916908373ffffffffffffffffffffffffffffffffffffffff160217905550818373ffffffffffffffffffffffffffffffffffffffff168273ffffffffffffffffffffffffffffffffffffffff167f8c5be1e5ebec7d5bd14f71427d1e84f3dd0314c0f7b2291e5b200ac8c7c3b92560405160405180910390a4505050565b6000600b80549050905090565b610a7d33826132ba565b1515610abe576040517f08c379a0000000000000000000000000000000000000000000000000000000008152600401610ab590615c0d565b60405180910390fd5b610ac983838361339a565b505050565b6060601360008373ffffffffffffffffffffffffffffffffffffffff1673ffffffffffffffffffffffffffffffffffffffff168152602001908152602001600020805480602002602001604051908101604052809291908181526020016000905b82821015610beb578382906000526020600020018054600181600116156101000203166002900480601f016020809104026020016040519081016040528092919081815260200182805460018160011615610100020316600290048015610bd75780601f10610bac57610100808354040283529160200191610bd7565b820191906000526020600020905b815481529060010190602001808311610bba57829003601f168201915b505050505081526020019060010190610b2f565b505050509050919050565b6000610c0183611b60565b82101515610c44576040517f08c379a0000000000000000000000000000000000000000000000000000000008152600401610c3b906159ed565b60405180910390fd5b600960008473ffffffffffffffffffffffffffffffffffffffff1673ffffffffffffffffffffffffffffffffffffffff16815260200190815260200160002082815481101515610c9057fe5b9060005260206000200154905092915050565b60606003805480602002602001604051908101604052809291908181526020016000905b82821015610d83578382906000526020600020018054600181600116156101000203166002900480601f016020809104026020016040519081016040528092919081815260200182805460018160011615610100020316600290048015610d6f5780601f10610d4457610100808354040283529160200191610d6f565b820191906000526020600020905b815481529060010190602001808311610d5257829003601f168201915b505050505081526020019060010190610cc7565b50505050905090565b60006015826040518082805190602001908083835b602083101515610dc65780518252602082019150602081019050602083039250610da1565b6001836020036101000a038019825116818451168082178552505050505050905001915050908152602001604051809103902060009054906101000a900461ffff169050919050565b610e2b838383602060405190810160405280600081525061277f565b505050565b6000815114151515610e77576040517f08c379a0000000000000000000000000000000000000000000000000000000008152600401610e6e90615a6d565b60405180910390fd5b6000601260003373ffffffffffffffffffffffffffffffffffffffff1673ffffffffffffffffffffffffffffffffffffffff168152602001908152602001600020826040518082805190602001908083835b602083101515610eee5780518252602082019150602081019050602083039250610ec9565b6001836020036101000a038019825116818451168082178552505050505050905001915050908152602001604051809103902054141515610f64576040517f08c379a0000000000000000000000000000000000000000000000000000000008152600401610f5b90615c4d565b60405180910390fd5b6060600080600080610f7586612035565b80955081965082975083985084995050505050506000610f9560646133be565b90506000865114151515610fde576040517f08c379a0000000000000000000000000000000000000000000000000000000008152600401610fd590615a4d565b60405180910390fd5b8461ffff166015886040518082805190602001908083835b60208310151561101b5780518252602082019150602081019050602083039250610ff6565b6001836020036101000a038019825116818451168082178552505050505050905001915050908152602001604051809103902060009054906101000a900461ffff1661ffff16108061106a5750815b15156110ab576040517f08c379a00000000000000000000000000000000000000000000000000000000081526004016110a2906159cd565b60405180910390fd5b8360ff16811115806110ba5750815b15156110fb576040517f08c379a00000000000000000000000000000000000000000000000000000000081526004016110f290615ced565b60405180910390fd5b601060008154809291906001019190505550611115614606565b60806040519081016040528060105481526020018981526020018560ff16815260200160206040519081016040528060008152508152509050601054601260003373ffffffffffffffffffffffffffffffffffffffff1673ffffffffffffffffffffffffffffffffffffffff168152602001908152602001600020896040518082805190602001908083835b6020831015156111c657805182526020820191506020810190506020830392506111a1565b6001836020036101000a03801982511681845116808217855250505050505090500191505090815260200160405180910390208190555080601160006010548152602001908152602001600020600082015181600001556020820151816001019080519060200190611239929190614632565b5060408201518160020160006101000a81548160ff021916908360ff1602179055506060820151816003019080519060200190611277929190614632565b50905050601360003373ffffffffffffffffffffffffffffffffffffffff1673ffffffffffffffffffffffffffffffffffffffff1681526020019081526020016000208890806001815401808255809150509060018203906000526020600020016000909192909190915090805190602001906112f59291906146b2565b50506000601360003373ffffffffffffffffffffffffffffffffffffffff1673ffffffffffffffffffffffffffffffffffffffff16815260200190815260200160002080549050905080601460003373ffffffffffffffffffffffffffffffffffffffff1673ffffffffffffffffffffffffffffffffffffffff1681526020019081526020016000208a6040518082805190602001908083835b6020831015156113b4578051825260208201915060208101905060208303925061138f565b6001836020036101000a0380198251168184511680821785525050505050509050019150509081526020016040518091039020819055506015896040518082805190602001908083835b60208310151561142357805182526020820191506020810190506020830392506113fe565b6001836020036101000a0380198251168184511680821785525050505050509050019150509081526020016040518091039020600081819054906101000a900461ffff168092919060010191906101000a81548161ffff021916908361ffff160217905550506114953360105461345b565b7fceb4c9f4732d8c9705753a13390bc186fa7ef161ef5505ee3fc2e2a69e905430336010548b866040516114cc9493929190615825565b60405180910390a1505050505050505050565b60006114e9610a66565b8210151561152c576040517f08c379a000000000000000000000000000000000000000000000000000000000815260040161152390615c6d565b60405180910390fd5b600b8281548110151561153b57fe5b90600052602060002001549050919050565b600160009054906101000a900473ffffffffffffffffffffffffffffffffffffffff1673ffffffffffffffffffffffffffffffffffffffff163373ffffffffffffffffffffffffffffffffffffffff161415156115df576040517f08c379a00000000000000000000000000000000000000000000000000000000081526004016115d690615c2d565b60405180910390fd5b60008551141580156115f6575060008461ffff1614155b8015611606575060008360ff1614155b8015611616575060648360ff1611155b8015611626575060008260ff1614155b80156116b4575060006002866040518082805190602001908083835b6020831015156116675780518252602082019150602081019050602083039250611642565b6001836020036101000a0380198251168184511680821785525050505050509050019150509081526020016040518091039020600001805460018160011615610100020316600290049050145b15156116bf57600080fd5b60a0604051908101604052808681526020018561ffff1681526020018460ff1681526020018360ff1681526020018215158152506002866040518082805190602001908083835b60208310151561172b5780518252602082019150602081019050602083039250611706565b6001836020036101000a0380198251168184511680821785525050505050509050019150509081526020016040518091039020600082015181600001908051906020019061177a929190614632565b5060208201518160010160006101000a81548161ffff021916908361ffff16021790555060408201518160010160026101000a81548160ff021916908360ff16021790555060608201518160010160036101000a81548160ff021916908360ff16021790555060808201518160010160046101000a81548160ff02191690831515021790555090505060038590806001815401808255809150509060018203906000526020600020016000909192909190915090805190602001906118409291906146b2565b50507f3ffcd8b4a77d9c6e548071baf17975ef7e35084a2d89f5a19aff8a1b87edc023858585858560405161187995949392919061590e565b60405180910390a15050505050565b60008151141515156118cf576040517f08c379a00000000000000000000000000000000000000000000000000000000081526004016118c690615a6d565b60405180910390fd5b6000601260003373ffffffffffffffffffffffffffffffffffffffff1673ffffffffffffffffffffffffffffffffffffffff168152602001908152602001600020826040518082805190602001908083835b6020831015156119465780518252602082019150602081019050602083039250611921565b6001836020036101000a0380198251168184511680821785525050505050509050019150509081526020016040518091039020541415156119bc576040517f08c379a00000000000000000000000000000000000000000000000000000000081526004016119b390615c4d565b60405180910390fd5b60606000806000806119cd86612035565b8095508196508297508398508499505050505050670de0b6b3a76400003414806119f45750805b1515611a35576040517f08c379a0000000000000000000000000000000000000000000000000000000008152600401611a2c90615c8d565b60405180910390fd5b6000600160009054906101000a900473ffffffffffffffffffffffffffffffffffffffff1690508073ffffffffffffffffffffffffffffffffffffffff166108fc349081150290604051600060405180830381858888f19350505050158015611aa2573d6000803e3d6000fd5b5050505050505050565b6000806005600084815260200190815260200160002060009054906101000a900473ffffffffffffffffffffffffffffffffffffffff169050600073ffffffffffffffffffffffffffffffffffffffff168173ffffffffffffffffffffffffffffffffffffffff1614151515611b57576040517f08c379a0000000000000000000000000000000000000000000000000000000008152600401611b4e90615b4d565b60405180910390fd5b80915050919050565b60008073ffffffffffffffffffffffffffffffffffffffff168273ffffffffffffffffffffffffffffffffffffffff1614151515611bd3576040517f08c379a0000000000000000000000000000000000000000000000000000000008152600401611bca90615b2d565b60405180910390fd5b611c1a600760008473ffffffffffffffffffffffffffffffffffffffff1673ffffffffffffffffffffffffffffffffffffffff16815260200190815260200160002061347c565b9050919050565b6000601260003373ffffffffffffffffffffffffffffffffffffffff1673ffffffffffffffffffffffffffffffffffffffff168152602001908152602001600020826040518082805190602001908083835b602083101515611c985780518252602082019150602081019050602083039250611c73565b6001836020036101000a03801982511681845116808217855250505050505090500191505090815260200160405180910390205490506000601160008381526020019081526020016000206000015414151515611d2a576040517f08c379a0000000000000000000000000000000000000000000000000000000008152600401611d2190615ccd565b60405180910390fd5b611d338261348a565b1515611d815760116000828152602001908152602001600020600201600081819054906101000a900460ff16809291906001900391906101000a81548160ff021916908360ff160217905550505b60006011600083815260200190815260200160002060020160009054906101000a900460ff1660ff161415611fd357611db98161350f565b6080604051908101604052806000815260200160206040519081016040528060008152508152602001600060ff168152602001602060405190810160405280600081525081525060116000838152602001908152602001600020600082015181600001556020820151816001019080519060200190611e39929190614632565b5060408201518160020160006101000a81548160ff021916908360ff1602179055506060820151816003019080519060200190611e77929190614632565b509050506000601260003373ffffffffffffffffffffffffffffffffffffffff1673ffffffffffffffffffffffffffffffffffffffff168152602001908152602001600020836040518082805190602001908083835b602083101515611ef25780518252602082019150602081019050602083039250611ecd565b6001836020036101000a0380198251168184511680821785525050505050509050019150509081526020016040518091039020819055506015826040518082805190602001908083835b602083101515611f615780518252602082019150602081019050602083039250611f3c565b6001836020036101000a0380198251168184511680821785525050505050509050019150509081526020016040518091039020600081819054906101000a900461ffff16809291906001900391906101000a81548161ffff021916908361ffff16021790555050611fd23383613524565b5b7f13284f3a8c9d56277c3bc44f73faae20aad855ae0af05ce46a3ffe6f9240301433836011600085815260200190815260200160002060020160009054906101000a900460ff16604051612029939291906157e7565b60405180910390a15050565b60606000806000806002866040518082805190602001908083835b6020831015156120755780518252602082019150602081019050602083039250612050565b6001836020036101000a03801982511681845116808217855250505050505090500191505090815260200160405180910390206000016002876040518082805190602001908083835b6020831015156120e357805182526020820191506020810190506020830392506120be565b6001836020036101000a038019825116818451168082178552505050505050905001915050908152602001604051809103902060010160009054906101000a900461ffff166002886040518082805190602001908083835b602083101515612160578051825260208201915060208101905060208303925061213b565b6001836020036101000a038019825116818451168082178552505050505050905001915050908152602001604051809103902060010160029054906101000a900460ff166002896040518082805190602001908083835b6020831015156121dc57805182526020820191506020810190506020830392506121b7565b6001836020036101000a038019825116818451168082178552505050505050905001915050908152602001604051809103902060010160039054906101000a900460ff1660028a6040518082805190602001908083835b6020831015156122585780518252602082019150602081019050602083039250612233565b6001836020036101000a038019825116818451168082178552505050505050905001915050908152602001604051809103902060010160049054906101000a900460ff16848054600181600116156101000203166002900480601f0160208091040260200160405190810160405280929190818152602001828054600181600116156101000203166002900480156123315780601f1061230657610100808354040283529160200191612331565b820191906000526020600020905b81548152906001019060200180831161231457829003601f168201915b505050505094509450945094509450945091939590929450565b6060600e8054600181600116156101000203166002900480601f0160208091040260200160405190810160405280929190818152602001828054600181600116156101000203166002900480156123e35780601f106123b8576101008083540402835291602001916123e3565b820191906000526020600020905b8154815290600101906020018083116123c657829003601f168201915b5050505050905090565b3373ffffffffffffffffffffffffffffffffffffffff168273ffffffffffffffffffffffffffffffffffffffff161415151561245e576040517f08c379a000000000000000000000000000000000000000000000000000000000815260040161245590615aad565b60405180910390fd5b80600860003373ffffffffffffffffffffffffffffffffffffffff1673ffffffffffffffffffffffffffffffffffffffff16815260200190815260200160002060008473ffffffffffffffffffffffffffffffffffffffff1673ffffffffffffffffffffffffffffffffffffffff16815260200190815260200160002060006101000a81548160ff0219169083151502179055508173ffffffffffffffffffffffffffffffffffffffff163373ffffffffffffffffffffffffffffffffffffffff167f17307eab39ab6107e8899845ad3d59bd9653f200f220920489ca2b5937696c318360405161254f9190615893565b60405180910390a35050565b600160009054906101000a900473ffffffffffffffffffffffffffffffffffffffff1673ffffffffffffffffffffffffffffffffffffffff163373ffffffffffffffffffffffffffffffffffffffff161415156125ed576040517f08c379a00000000000000000000000000000000000000000000000000000000081526004016125e490615c2d565b60405180910390fd5b6000835114158015612604575060008261ffff1614155b8015612614575060008160ff1614155b8015612624575060648160ff1611155b151561262f57600080fd5b816002846040518082805190602001908083835b6020831015156126685780518252602082019150602081019050602083039250612643565b6001836020036101000a038019825116818451168082178552505050505050905001915050908152602001604051809103902060010160006101000a81548161ffff021916908361ffff160217905550806002846040518082805190602001908083835b6020831015156126f157805182526020820191506020810190506020830392506126cc565b6001836020036101000a038019825116818451168082178552505050505050905001915050908152602001604051809103902060010160026101000a81548160ff021916908360ff1602179055507f906fbea466281167dfdc48aa77a9e7d9891ccbfc889cea1cbe5b1777cd252232838383604051612772939291906158d0565b60405180910390a1505050565b61278a848484610a73565b612796848484846139df565b15156127d7576040517f08c379a00000000000000000000000000000000000000000000000000000000081526004016127ce90615a0d565b60405180910390fd5b50505050565b60606127e882613248565b1515612829576040517f08c379a000000000000000000000000000000000000000000000000000000000815260040161282090615bcd565b60405180910390fd5b600f60008381526020019081526020016000208054600181600116156101000203166002900480601f0160208091040260200160405190810160405280929190818152602001828054600181600116156101000203166002900480156128d05780601f106128a5576101008083540402835291602001916128d0565b820191906000526020600020905b8154815290600101906020018083116128b357829003601f168201915b50505050509050919050565b6060601160008581526020019081526020016000206001018054600181600116156101000203166002900480601f0160208091040260200160405190810160405280929190818152602001828054600181600116156101000203166002900480156129885780601f1061295d57610100808354040283529160200191612988565b820191906000526020600020905b81548152906001019060200180831161296b57829003601f168201915b50505050509050601260008473ffffffffffffffffffffffffffffffffffffffff1673ffffffffffffffffffffffffffffffffffffffff168152602001908152602001600020816040518082805190602001908083835b602083101515612a0457805182526020820191506020810190506020830392506129df565b6001836020036101000a038019825116818451168082178552505050505050905001915050908152602001604051809103902054601260008473ffffffffffffffffffffffffffffffffffffffff1673ffffffffffffffffffffffffffffffffffffffff168152602001908152602001600020826040518082805190602001908083835b602083101515612aad5780518252602082019150602081019050602083039250612a88565b6001836020036101000a0380198251168184511680821785525050505050509050019150509081526020016040518091039020819055506000601260008573ffffffffffffffffffffffffffffffffffffffff1673ffffffffffffffffffffffffffffffffffffffff168152602001908152602001600020826040518082805190602001908083835b602083101515612b5b5780518252602082019150602081019050602083039250612b36565b6001836020036101000a038019825116818451168082178552505050505050905001915050908152602001604051809103902081905550612b9c8382613524565b601360008373ffffffffffffffffffffffffffffffffffffffff1673ffffffffffffffffffffffffffffffffffffffff168152602001908152602001600020819080600181540180825580915050906001820390600052602060002001600090919290919091509080519060200190612c169291906146b2565b5050601360008373ffffffffffffffffffffffffffffffffffffffff1673ffffffffffffffffffffffffffffffffffffffff16815260200190815260200160002080549050601460008473ffffffffffffffffffffffffffffffffffffffff1673ffffffffffffffffffffffffffffffffffffffff168152602001908152602001600020826040518082805190602001908083835b602083101515612cd05780518252602082019150602081019050602083039250612cab565b6001836020036101000a03801982511681845116808217855250505050505090500191505090815260200160405180910390208190555050505050565b6000825114151515612d54576040517f08c379a0000000000000000000000000000000000000000000000000000000008152600401612d4b90615a6d565b60405180910390fd5b6000815114151515612d9b576040517f08c379a0000000000000000000000000000000000000000000000000000000008152600401612d92906159ad565b60405180910390fd5b6000601260003373ffffffffffffffffffffffffffffffffffffffff1673ffffffffffffffffffffffffffffffffffffffff168152602001908152602001600020836040518082805190602001908083835b602083101515612e125780518252602082019150602081019050602083039250612ded565b6001836020036101000a03801982511681845116808217855250505050505090500191505090815260200160405180910390205414151515612e89576040517f08c379a0000000000000000000000000000000000000000000000000000000008152600401612e8090615ccd565b60405180910390fd5b6000601260003373ffffffffffffffffffffffffffffffffffffffff1673ffffffffffffffffffffffffffffffffffffffff168152602001908152602001600020836040518082805190602001908083835b602083101515612f005780518252602082019150602081019050602083039250612edb565b6001836020036101000a038019825116818451168082178552505050505050905001915050908152602001604051809103902054905081601160008381526020019081526020016000206003019080519060200190612f609291906146b2565b50505050565b6000601260008473ffffffffffffffffffffffffffffffffffffffff1673ffffffffffffffffffffffffffffffffffffffff168152602001908152602001600020826040518082805190602001908083835b602083101515612fdd5780518252602082019150602081019050602083039250612fb8565b6001836020036101000a038019825116818451168082178552505050505050905001915050908152602001604051809103902054905092915050565b606060006060601160008581526020019081526020016000206001016011600086815260200190815260200160002060020160009054906101000a900460ff1660116000878152602001908152602001600020600301828054600181600116156101000203166002900480601f0160208091040260200160405190810160405280929190818152602001828054600181600116156101000203166002900480156131045780601f106130d957610100808354040283529160200191613104565b820191906000526020600020905b8154815290600101906020018083116130e757829003601f168201915b50505050509250808054600181600116156101000203166002900480601f0160208091040260200160405190810160405280929190818152602001828054600181600116156101000203166002900480156131a05780601f10613175576101008083540402835291602001916131a0565b820191906000526020600020905b81548152906001019060200180831161318357829003601f168201915b505050505090509250925092509193909250565b6000600860008473ffffffffffffffffffffffffffffffffffffffff1673ffffffffffffffffffffffffffffffffffffffff16815260200190815260200160002060008373ffffffffffffffffffffffffffffffffffffffff1673ffffffffffffffffffffffffffffffffffffffff16815260200190815260200160002060009054906101000a900460ff16905092915050565b6000806005600084815260200190815260200160002060009054906101000a900473ffffffffffffffffffffffffffffffffffffffff169050600073ffffffffffffffffffffffffffffffffffffffff168173ffffffffffffffffffffffffffffffffffffffff161415915050919050565b60006132c582613248565b1515613306576040517f08c379a00000000000000000000000000000000000000000000000000000000081526004016132fd90615aed565b60405180910390fd5b600061331183611aac565b90508073ffffffffffffffffffffffffffffffffffffffff168473ffffffffffffffffffffffffffffffffffffffff16148061338057508373ffffffffffffffffffffffffffffffffffffffff166133688461082e565b73ffffffffffffffffffffffffffffffffffffffff16145b80613391575061339081856131b4565b5b91505092915050565b6133a5838383613b30565b6133af8382613d63565b6133b98282613f07565b505050565b60008060008154809291906001019190505550814233600054604051602001808481526020018373ffffffffffffffffffffffffffffffffffffffff1673ffffffffffffffffffffffffffffffffffffffff166c010000000000000000000000000281526014018281526020019350505050604051602081830303815290604052805190602001206001900481151561345357fe5b069050919050565b6134658282613fce565b61346f8282613f07565b61347881614184565b5050565b600081600001549050919050565b60006002826040518082805190602001908083835b6020831015156134c4578051825260208201915060208101905060208303925061349f565b6001836020036101000a038019825116818451168082178552505050505050905001915050908152602001604051809103902060010160049054906101000a900460ff169050919050565b61352161351b82611aac565b826141d0565b50565b60006001601360008573ffffffffffffffffffffffffffffffffffffffff1673ffffffffffffffffffffffffffffffffffffffff168152602001908152602001600020805490500390506000601460008573ffffffffffffffffffffffffffffffffffffffff1673ffffffffffffffffffffffffffffffffffffffff168152602001908152602001600020836040518082805190602001908083835b6020831015156135e557805182526020820191506020810190506020830392506135c0565b6001836020036101000a0380198251168184511680821785525050505050509050019150509081526020016040518091039020549050601360008573ffffffffffffffffffffffffffffffffffffffff1673ffffffffffffffffffffffffffffffffffffffff1681526020019081526020016000208054905081141515613876576060601360008673ffffffffffffffffffffffffffffffffffffffff1673ffffffffffffffffffffffffffffffffffffffff168152602001908152602001600020838154811015156136b457fe5b906000526020600020018054600181600116156101000203166002900480601f0160208091040260200160405190810160405280929190818152602001828054600181600116156101000203166002900480156137525780601f1061372757610100808354040283529160200191613752565b820191906000526020600020905b81548152906001019060200180831161373557829003601f168201915b5050505050905080601360008773ffffffffffffffffffffffffffffffffffffffff1673ffffffffffffffffffffffffffffffffffffffff168152602001908152602001600020600184038154811015156137a957fe5b9060005260206000200190805190602001906137c69291906146b2565b5081601460008773ffffffffffffffffffffffffffffffffffffffff1673ffffffffffffffffffffffffffffffffffffffff168152602001908152602001600020826040518082805190602001908083835b60208310151561383d5780518252602082019150602081019050602083039250613818565b6001836020036101000a038019825116818451168082178552505050505050905001915050908152602001604051809103902081905550505b601360008573ffffffffffffffffffffffffffffffffffffffff1673ffffffffffffffffffffffffffffffffffffffff168152602001908152602001600020828154811015156138c257fe5b9060005260206000200160006138d89190614732565b601360008573ffffffffffffffffffffffffffffffffffffffff1673ffffffffffffffffffffffffffffffffffffffff16815260200190815260200160002080548091906001900361392a919061477a565b506000601460008673ffffffffffffffffffffffffffffffffffffffff1673ffffffffffffffffffffffffffffffffffffffff168152602001908152602001600020846040518082805190602001908083835b6020831015156139a2578051825260208201915060208101905060208303925061397d565b6001836020036101000a03801982511681845116808217855250505050505090500191505090815260200160405180910390208190555050505050565b6000613a008473ffffffffffffffffffffffffffffffffffffffff1661422f565b1515613a0f5760019050613b28565b60008473ffffffffffffffffffffffffffffffffffffffff1663150b7a02338887876040518563ffffffff167c0100000000000000000000000000000000000000000000000000000000028152600401613a6c949392919061579b565b602060405180830381600087803b158015613a8657600080fd5b505af1158015613a9a573d6000803e3d6000fd5b505050506040513d601f19601f82011682018060405250613abe9190810190614b7f565b905063150b7a027c0100000000000000000000000000000000000000000000000000000000027bffffffffffffffffffffffffffffffffffffffffffffffffffffffff1916817bffffffffffffffffffffffffffffffffffffffffffffffffffffffff1916149150505b949350505050565b8273ffffffffffffffffffffffffffffffffffffffff16613b5082611aac565b73ffffffffffffffffffffffffffffffffffffffff16141515613ba8576040517f08c379a0000000000000000000000000000000000000000000000000000000008152600401613b9f90615bad565b60405180910390fd5b600073ffffffffffffffffffffffffffffffffffffffff168273ffffffffffffffffffffffffffffffffffffffff1614151515613c1a576040517f08c379a0000000000000000000000000000000000000000000000000000000008152600401613c1190615a8d565b60405180910390fd5b613c2381614242565b613c6a600760008573ffffffffffffffffffffffffffffffffffffffff1673ffffffffffffffffffffffffffffffffffffffff168152602001908152602001600020614302565b613cb1600760008473ffffffffffffffffffffffffffffffffffffffff1673ffffffffffffffffffffffffffffffffffffffff168152602001908152602001600020614325565b816005600083815260200190815260200160002060006101000a81548173ffffffffffffffffffffffffffffffffffffffff021916908373ffffffffffffffffffffffffffffffffffffffff160217905550808273ffffffffffffffffffffffffffffffffffffffff168473ffffffffffffffffffffffffffffffffffffffff167fddf252ad1be2c89b69c2b068fc378daa952ba7f163c4a11628f55a4df523b3ef60405160405180910390a4505050565b6000613dbb6001600960008673ffffffffffffffffffffffffffffffffffffffff1673ffffffffffffffffffffffffffffffffffffffff1681526020019081526020016000208054905061433b90919063ffffffff16565b90506000600a60008481526020019081526020016000205490508181141515613eae576000600960008673ffffffffffffffffffffffffffffffffffffffff1673ffffffffffffffffffffffffffffffffffffffff16815260200190815260200160002083815481101515613e2c57fe5b9060005260206000200154905080600960008773ffffffffffffffffffffffffffffffffffffffff1673ffffffffffffffffffffffffffffffffffffffff16815260200190815260200160002083815481101515613e8657fe5b906000526020600020018190555081600a600083815260200190815260200160002081905550505b600960008573ffffffffffffffffffffffffffffffffffffffff1673ffffffffffffffffffffffffffffffffffffffff168152602001908152602001600020805480919060019003613f0091906147a6565b5050505050565b600960008373ffffffffffffffffffffffffffffffffffffffff1673ffffffffffffffffffffffffffffffffffffffff16815260200190815260200160002080549050600a600083815260200190815260200160002081905550600960008373ffffffffffffffffffffffffffffffffffffffff1673ffffffffffffffffffffffffffffffffffffffff1681526020019081526020016000208190806001815401808255809150509060018203906000526020600020016000909192909190915055505050565b600073ffffffffffffffffffffffffffffffffffffffff168273ffffffffffffffffffffffffffffffffffffffff1614151515614040576040517f08c379a000000000000000000000000000000000000000000000000000000000815260040161403790615b6d565b60405180910390fd5b61404981613248565b15151561408b576040517f08c379a000000000000000000000000000000000000000000000000000000000815260040161408290615a2d565b60405180910390fd5b816005600083815260200190815260200160002060006101000a81548173ffffffffffffffffffffffffffffffffffffffff021916908373ffffffffffffffffffffffffffffffffffffffff160217905550614124600760008473ffffffffffffffffffffffffffffffffffffffff1673ffffffffffffffffffffffffffffffffffffffff168152602001908152602001600020614325565b808273ffffffffffffffffffffffffffffffffffffffff16600073ffffffffffffffffffffffffffffffffffffffff167fddf252ad1be2c89b69c2b068fc378daa952ba7f163c4a11628f55a4df523b3ef60405160405180910390a45050565b600b80549050600c600083815260200190815260200160002081905550600b81908060018154018082558091505090600182039060005260206000200160009091929091909150555050565b6141da8282614393565b6000600f600083815260200190815260200160002080546001816001161561010002031660029004905014151561422b57600f6000828152602001908152602001600020600061422a9190614732565b5b5050565b600080823b905060008111915050919050565b600073ffffffffffffffffffffffffffffffffffffffff166006600083815260200190815260200160002060009054906101000a900473ffffffffffffffffffffffffffffffffffffffff1673ffffffffffffffffffffffffffffffffffffffff161415156142ff5760006006600083815260200190815260200160002060006101000a81548173ffffffffffffffffffffffffffffffffffffffff021916908373ffffffffffffffffffffffffffffffffffffffff1602179055505b50565b61431a6001826000015461433b90919063ffffffff16565b816000018190555050565b6001816000016000828254019250508190555050565b6000828211151515614382576040517f08c379a000000000000000000000000000000000000000000000000000000000815260040161437990615acd565b60405180910390fd5b600082840390508091505092915050565b61439d82826143cd565b6143a78282613d63565b6000600a6000838152602001908152602001600020819055506143c981614548565b5050565b8173ffffffffffffffffffffffffffffffffffffffff166143ed82611aac565b73ffffffffffffffffffffffffffffffffffffffff16141515614445576040517f08c379a000000000000000000000000000000000000000000000000000000000815260040161443c90615cad565b60405180910390fd5b61444e81614242565b614495600760008473ffffffffffffffffffffffffffffffffffffffff1673ffffffffffffffffffffffffffffffffffffffff168152602001908152602001600020614302565b60006005600083815260200190815260200160002060006101000a81548173ffffffffffffffffffffffffffffffffffffffff021916908373ffffffffffffffffffffffffffffffffffffffff16021790555080600073ffffffffffffffffffffffffffffffffffffffff168373ffffffffffffffffffffffffffffffffffffffff167fddf252ad1be2c89b69c2b068fc378daa952ba7f163c4a11628f55a4df523b3ef60405160405180910390a45050565b60006145636001600b8054905061433b90919063ffffffff16565b90506000600c60008481526020019081526020016000205490506000600b8381548110151561458e57fe5b9060005260206000200154905080600b838154811015156145ab57fe5b906000526020600020018190555081600c600083815260200190815260200160002081905550600b8054809190600190036145e691906147a6565b506000600c60008681526020019081526020016000208190555050505050565b6080604051908101604052806000815260200160608152602001600060ff168152602001606081525090565b828054600181600116156101000203166002900490600052602060002090601f016020900481019282601f1061467357805160ff19168380011785556146a1565b828001600101855582156146a1579182015b828111156146a0578251825591602001919060010190614685565b5b5090506146ae91906147d2565b5090565b828054600181600116156101000203166002900490600052602060002090601f016020900481019282601f106146f357805160ff1916838001178555614721565b82800160010185558215614721579182015b82811115614720578251825591602001919060010190614705565b5b50905061472e91906147d2565b5090565b50805460018160011615610100020316600290046000825580601f106147585750614777565b601f01602090049060005260206000209081019061477691906147d2565b5b50565b8154818355818111156147a1578183600052602060002091820191016147a091906147f7565b5b505050565b8154818355818111156147cd578183600052602060002091820191016147cc91906147d2565b5b505050565b6147f491905b808211156147f05760008160009055506001016147d8565b5090565b90565b61482091905b8082111561481c57600081816148139190614732565b506001016147fd565b5090565b90565b600061482f8235615e71565b905092915050565b60006148438235615e83565b905092915050565b60006148578235615e8f565b905092915050565b600061486b8251615e8f565b905092915050565b600082601f830112151561488657600080fd5b813561489961489482615d70565b615d43565b915080825260208301602083018583830111156148b557600080fd5b6148c0838284615f16565b50505092915050565b600082601f83011215156148dc57600080fd5b81356148ef6148ea82615d9c565b615d43565b9150808252602083016020830185838301111561490b57600080fd5b614916838284615f16565b50505092915050565b600061492b8235615ebb565b905092915050565b600061493f8235615ec9565b905092915050565b60006149538235615ed3565b905092915050565b60006020828403121561496d57600080fd5b600061497b84828501614823565b91505092915050565b6000806040838503121561499757600080fd5b60006149a585828601614823565b92505060206149b685828601614823565b9150509250929050565b6000806000606084860312156149d557600080fd5b60006149e386828701614823565b93505060206149f486828701614823565b9250506040614a0586828701614933565b9150509250925092565b60008060008060808587031215614a2557600080fd5b6000614a3387828801614823565b9450506020614a4487828801614823565b9350506040614a5587828801614933565b925050606085013567ffffffffffffffff811115614a7257600080fd5b614a7e87828801614873565b91505092959194509250565b60008060408385031215614a9d57600080fd5b6000614aab85828601614823565b9250506020614abc85828601614837565b9150509250929050565b60008060408385031215614ad957600080fd5b6000614ae785828601614823565b925050602083013567ffffffffffffffff811115614b0457600080fd5b614b10858286016148c9565b9150509250929050565b60008060408385031215614b2d57600080fd5b6000614b3b85828601614823565b9250506020614b4c85828601614933565b9150509250929050565b600060208284031215614b6857600080fd5b6000614b768482850161484b565b91505092915050565b600060208284031215614b9157600080fd5b6000614b9f8482850161485f565b91505092915050565b600060208284031215614bba57600080fd5b600082013567ffffffffffffffff811115614bd457600080fd5b614be0848285016148c9565b91505092915050565b60008060408385031215614bfc57600080fd5b600083013567ffffffffffffffff811115614c1657600080fd5b614c22858286016148c9565b925050602083013567ffffffffffffffff811115614c3f57600080fd5b614c4b858286016148c9565b9150509250929050565b600080600060608486031215614c6a57600080fd5b600084013567ffffffffffffffff811115614c8457600080fd5b614c90868287016148c9565b9350506020614ca18682870161491f565b9250506040614cb286828701614947565b9150509250925092565b600080600080600060a08688031215614cd457600080fd5b600086013567ffffffffffffffff811115614cee57600080fd5b614cfa888289016148c9565b9550506020614d0b8882890161491f565b9450506040614d1c88828901614947565b9350506060614d2d88828901614947565b9250506080614d3e88828901614837565b9150509295509295909350565b600060208284031215614d5d57600080fd5b6000614d6b84828501614933565b91505092915050565b600080600060608486031215614d8957600080fd5b6000614d9786828701614933565b9350506020614da886828701614823565b9250506040614db986828701614823565b9150509250925092565b614dcc81615ee0565b82525050565b614ddb81615e0e565b82525050565b6000614dec82615dd5565b80845260208401935083602082028501614e0585615dc8565b60005b84811015614e3e578383038852614e20838351614eca565b9250614e2b82615e01565b9150602088019750600181019050614e08565b508196508694505050505092915050565b614e5881615e20565b82525050565b6000614e6982615de0565b808452614e7d816020860160208601615f25565b614e8681615f58565b602085010191505092915050565b6000614e9f82615df6565b808452614eb3816020860160208601615f25565b614ebc81615f58565b602085010191505092915050565b6000614ed582615deb565b808452614ee9816020860160208601615f25565b614ef281615f58565b602085010191505092915050565b6000601b82527f5f696d616765555249206d757374206e6f7420626520626c616e6b00000000006020830152604082019050919050565b6000603982527f746f6b656e436f756e74206d757374206265206c6f776572207468616e20746f60208301527f74616c436f756e74206f72206265206672656520746f6b656e000000000000006040830152606082019050919050565b6000602b82527f455243373231456e756d657261626c653a206f776e657220696e646578206f7560208301527f74206f6620626f756e64730000000000000000000000000000000000000000006040830152606082019050919050565b6000603282527f4552433732313a207472616e7366657220746f206e6f6e20455243373231526560208301527f63656976657220696d706c656d656e74657200000000000000000000000000006040830152606082019050919050565b6000601c82527f4552433732313a20746f6b656e20616c7265616479206d696e746564000000006020830152604082019050919050565b6000601982527f746f6b656e20696e666f20646f6573206e6f74206578697374000000000000006020830152604082019050919050565b6000601782527f5f6e616d65206d757374206e6f7420626520626c616e6b0000000000000000006020830152604082019050919050565b6000602482527f4552433732313a207472616e7366657220746f20746865207a65726f2061646460208301527f72657373000000000000000000000000000000000000000000000000000000006040830152606082019050919050565b6000601982527f4552433732313a20617070726f766520746f2063616c6c6572000000000000006020830152604082019050919050565b6000601e82527f536166654d6174683a207375627472616374696f6e206f766572666c6f7700006020830152604082019050919050565b6000602c82527f4552433732313a206f70657261746f7220717565727920666f72206e6f6e657860208301527f697374656e7420746f6b656e00000000000000000000000000000000000000006040830152606082019050919050565b6000603882527f4552433732313a20617070726f76652063616c6c6572206973206e6f74206f7760208301527f6e6572206e6f7220617070726f76656420666f7220616c6c00000000000000006040830152606082019050919050565b6000602a82527f4552433732313a2062616c616e636520717565727920666f7220746865207a6560208301527f726f2061646472657373000000000000000000000000000000000000000000006040830152606082019050919050565b6000602982527f4552433732313a206f776e657220717565727920666f72206e6f6e657869737460208301527f656e7420746f6b656e00000000000000000000000000000000000000000000006040830152606082019050919050565b6000602082527f4552433732313a206d696e7420746f20746865207a65726f20616464726573736020830152604082019050919050565b6000602c82527f4552433732313a20617070726f76656420717565727920666f72206e6f6e657860208301527f697374656e7420746f6b656e00000000000000000000000000000000000000006040830152606082019050919050565b6000602982527f4552433732313a207472616e73666572206f6620746f6b656e2074686174206960208301527f73206e6f74206f776e00000000000000000000000000000000000000000000006040830152606082019050919050565b6000602f82527f4552433732314d657461646174613a2055524920717565727920666f72206e6f60208301527f6e6578697374656e7420746f6b656e00000000000000000000000000000000006040830152606082019050919050565b6000602182527f4552433732313a20617070726f76616c20746f2063757272656e74206f776e6560208301527f72000000000000000000000000000000000000000000000000000000000000006040830152606082019050919050565b6000603182527f4552433732313a207472616e736665722063616c6c6572206973206e6f74206f60208301527f776e6572206e6f7220617070726f7665640000000000000000000000000000006040830152606082019050919050565b6000602282527f6d73672e73656e646572206d7573742062652073616d652077697468206f776e60208301527f65720000000000000000000000000000000000000000000000000000000000006040830152606082019050919050565b6000601382527f7573657220686173207468697320746f6b656e000000000000000000000000006020830152604082019050919050565b6000602c82527f455243373231456e756d657261626c653a20676c6f62616c20696e646578206f60208301527f7574206f6620626f756e647300000000000000000000000000000000000000006040830152606082019050919050565b6000601982527f637265617465546f6b656e204665652069732031204b4c4159000000000000006020830152604082019050919050565b6000602582527f4552433732313a206275726e206f6620746f6b656e2074686174206973206e6f60208301527f74206f776e0000000000000000000000000000000000000000000000000000006040830152606082019050919050565b6000601482527f746f6b656e20646f6573206e6f742065786973740000000000000000000000006020830152604082019050919050565b6000603882527f6e6f6e636520697320626967676572207468616e2070657263656e746167652060208301527f616e64206974206973206e6f74206672656520746f6b656e00000000000000006040830152606082019050919050565b61575c81615e2c565b82525050565b61576b81615e5a565b82525050565b61577a81615e64565b82525050565b60006020820190506157956000830184614dd2565b92915050565b60006080820190506157b06000830187614dc3565b6157bd6020830186614dd2565b6157ca6040830185615762565b81810360608301526157dc8184614e5e565b905095945050505050565b60006060820190506157fc6000830186614dc3565b818103602083015261580e8185614e94565b905061581d6040830184615771565b949350505050565b600060808201905061583a6000830187614dc3565b6158476020830186615762565b81810360408301526158598185614e94565b90506158686060830184615762565b95945050505050565b6000602082019050818103600083015261588b8184614de1565b905092915050565b60006020820190506158a86000830184614e4f565b92915050565b600060208201905081810360008301526158c88184614e94565b905092915050565b600060608201905081810360008301526158ea8186614e94565b90506158f96020830185615753565b6159066040830184615771565b949350505050565b600060a08201905081810360008301526159288188614e94565b90506159376020830187615753565b6159446040830186615771565b6159516060830185615771565b61595e6080830184614e4f565b9695505050505050565b600060608201905081810360008301526159828186614e94565b90506159916020830185615771565b81810360408301526159a38184614e94565b9050949350505050565b600060208201905081810360008301526159c681614f00565b9050919050565b600060208201905081810360008301526159e681614f37565b9050919050565b60006020820190508181036000830152615a0681614f94565b9050919050565b60006020820190508181036000830152615a2681614ff1565b9050919050565b60006020820190508181036000830152615a468161504e565b9050919050565b60006020820190508181036000830152615a6681615085565b9050919050565b60006020820190508181036000830152615a86816150bc565b9050919050565b60006020820190508181036000830152615aa6816150f3565b9050919050565b60006020820190508181036000830152615ac681615150565b9050919050565b60006020820190508181036000830152615ae681615187565b9050919050565b60006020820190508181036000830152615b06816151be565b9050919050565b60006020820190508181036000830152615b268161521b565b9050919050565b60006020820190508181036000830152615b4681615278565b9050919050565b60006020820190508181036000830152615b66816152d5565b9050919050565b60006020820190508181036000830152615b8681615332565b9050919050565b60006020820190508181036000830152615ba681615369565b9050919050565b60006020820190508181036000830152615bc6816153c6565b9050919050565b60006020820190508181036000830152615be681615423565b9050919050565b60006020820190508181036000830152615c0681615480565b9050919050565b60006020820190508181036000830152615c26816154dd565b9050919050565b60006020820190508181036000830152615c468161553a565b9050919050565b60006020820190508181036000830152615c6681615597565b9050919050565b60006020820190508181036000830152615c86816155ce565b9050919050565b60006020820190508181036000830152615ca68161562b565b9050919050565b60006020820190508181036000830152615cc681615662565b9050919050565b60006020820190508181036000830152615ce6816156bf565b9050919050565b60006020820190508181036000830152615d06816156f6565b9050919050565b6000602082019050615d226000830184615753565b92915050565b6000602082019050615d3d6000830184615762565b92915050565b6000604051905081810181811067ffffffffffffffff82111715615d6657600080fd5b8060405250919050565b600067ffffffffffffffff821115615d8757600080fd5b601f19601f8301169050602081019050919050565b600067ffffffffffffffff821115615db357600080fd5b601f19601f8301169050602081019050919050565b6000602082019050919050565b600081519050919050565b600081519050919050565b600081519050919050565b600081519050919050565b6000602082019050919050565b6000615e1982615e3a565b9050919050565b60008115159050919050565b600061ffff82169050919050565b600073ffffffffffffffffffffffffffffffffffffffff82169050919050565b6000819050919050565b600060ff82169050919050565b6000615e7c82615e3a565b9050919050565b60008115159050919050565b60007fffffffff0000000000000000000000000000000000000000000000000000000082169050919050565b600061ffff82169050919050565b6000819050919050565b600060ff82169050919050565b6000615eeb82615ef2565b9050919050565b6000615efd82615f04565b9050919050565b6000615f0f82615e3a565b9050919050565b82818337600083830152505050565b60005b83811015615f43578082015181840152602081019050615f28565b83811115615f52576000848401525b50505050565b6000601f19601f830116905091905056fea265627a7a72305820dd2d9678bb3f77d0bb55af76c64841048c7f66a2eaab192dc9222d7d9fc722f16c6578706572696d656e74616cf50037",
  "source": "pragma solidity >=0.5.0 <0.9.0;\npragma experimental ABIEncoderV2;\n\nimport \"./MetaphorsTokenInfo.sol\";\nimport \"../Util/Utils.sol\";\nimport \"openzeppelin-solidity/contracts/token/ERC721/ERC721Full.sol\";\n\ncontract MetaphorsToken is Utils, MetaphorsTokenInfo, ERC721Full {\n    struct Token {\n        uint256 id;\n        string name;\n        uint8 durability;\n        string imageURI;\n    }\n\n    uint256 private lastTokenId;\n\n    mapping(uint256 => Token) tokens;\n\n    mapping(address => mapping(string => uint256)) ownedTokenIds;\n    mapping(address => string[]) ownedTokenList;\n    mapping(address => mapping(string => uint256)) ownedTokenListIndex;\n\n    mapping(string => uint16) tokenCounts;\n\n    constructor() ERC721Full(\"MetaphorsToken\", \"MPT\") public {\n        lastTokenId = 0;\n    }\n\n    function transferToOwner(\n        string memory _name\n    ) public payable {\n        require(bytes(_name).length != 0, \"_name must not be blank\");\n        require(ownedTokenIds[msg.sender][_name] == 0, \"user has this token\");\n\n        string memory name;\n        uint16 totalCount;\n        uint8 percentage;\n        uint8 maxDurability;\n        bool isFreeToken;\n\n        (name, totalCount, percentage, maxDurability, isFreeToken) = getTokenInfo(_name);\n\n        require(msg.value == 1 * 10 ** 18 || isFreeToken, \"createToken Fee is 1 KLAY\");\n\n        address payable payableOwner = address(uint160(owner));\n        payableOwner.transfer(msg.value);\n    }\n\n    function createToken(\n        string memory _name\n    ) public {\n        require(bytes(_name).length != 0, \"_name must not be blank\");\n        require(ownedTokenIds[msg.sender][_name] == 0, \"user has this token\");\n\n        string memory name;\n        uint16 totalCount;\n        uint8 percentage;\n        uint8 maxDurability;\n        bool isFreeToken;\n\n        (name, totalCount, percentage, maxDurability, isFreeToken) = getTokenInfo(_name);\n\n        uint nonce = randMod(100);\n\n        require(bytes(name).length != 0, \"token info does not exist\");\n        require(tokenCounts[_name] < totalCount || isFreeToken, \"tokenCount must be lower than totalCount or be free token\");\n        require(nonce <= percentage || isFreeToken, \"nonce is bigger than percentage and it is not free token\");\n\n        lastTokenId++;\n\n        Token memory token = Token(\n            lastTokenId,\n            _name,\n            maxDurability,\n            \"\"\n        );\n\n        ownedTokenIds[msg.sender][_name] = lastTokenId;\n        tokens[lastTokenId] = token;\n\n        ownedTokenList[msg.sender].push(_name);\n        uint256 index = ownedTokenList[msg.sender].length;\n        ownedTokenListIndex[msg.sender][_name] = index;\n\n        tokenCounts[_name]++;\n\n        _mint(msg.sender, lastTokenId);\n\n        emit CreateToken(msg.sender, lastTokenId, _name, nonce);\n    }\n\n    function useToken(\n        string memory _name\n    ) public {\n        uint256 id = ownedTokenIds[msg.sender][_name];\n\n        require(tokens[id].id != 0, \"token does not exist\");\n\n        if (!isFreeToken(_name)) {\n            tokens[id].durability--;\n        }\n\n        if (tokens[id].durability == 0) {\n            _burn(id);\n\n            tokens[id] = Token(0, \"\", 0, \"\");\n            ownedTokenIds[msg.sender][_name] = 0;\n\n            tokenCounts[_name]--;\n\n            removeElementInArray(msg.sender, _name);\n        }\n\n        emit UseToken(msg.sender, _name, tokens[id].durability);\n    }\n\n    function editTokenImage(\n        string memory _name,\n        string memory _imageURI\n    ) public {\n        require(bytes(_name).length != 0, \"_name must not be blank\");\n        require(bytes(_imageURI).length != 0, \"_imageURI must not be blank\");\n        require(ownedTokenIds[msg.sender][_name] != 0, \"token does not exist\");\n\n        uint256 id = ownedTokenIds[msg.sender][_name];\n\n        tokens[id].imageURI = _imageURI;\n    }\n\n    function getAllTokenNamesOfUser(address _user) public view returns (\n        string[] memory\n    ) {\n        return ownedTokenList[_user];\n    }\n\n    function getTokenCount(\n        string memory _name\n    ) public view returns (\n        uint16\n    ) {\n        return tokenCounts[_name];\n    }\n\n    function removeElementInArray(\n        address _user,\n        string memory _name\n    ) private {\n        uint256 lastIndex = ownedTokenList[_user].length - 1;\n        uint256 index = ownedTokenListIndex[_user][_name];\n\n        if(index != ownedTokenList[_user].length) {\n            string memory lastElement = ownedTokenList[_user][lastIndex];\n            ownedTokenList[_user][index-1] = lastElement;\n            ownedTokenListIndex[_user][lastElement] = index;\n        }\n\n        delete ownedTokenList[_user][lastIndex];\n        ownedTokenList[_user].length--;\n        ownedTokenListIndex[_user][_name] = 0;\n    }\n\n    function removeTokenInList(\n        uint256 _id,\n        address _from,\n        address _to\n    ) external {\n        string memory name = tokens[_id].name;\n\n        ownedTokenIds[_to][name] = ownedTokenIds[_from][name];\n        ownedTokenIds[_from][name] = 0;\n\n        removeElementInArray(_from, name);\n        ownedTokenList[_to].push(name);\n        ownedTokenListIndex[_to][name] = ownedTokenList[_to].length;\n    }\n\n    function getToken(\n        uint256 _id\n    ) external view returns (\n        string memory,\n        uint8,\n        string memory\n    ) {\n        return (\n        tokens[_id].name,\n        tokens[_id].durability,\n        tokens[_id].imageURI\n        );\n    }\n\n    function getTokenId(\n        address _user,\n        string memory _name\n    ) public view returns (\n        uint256\n    ) {\n        return ownedTokenIds[_user][_name];\n    }\n\n    event CreateToken(address sender, uint256 id, string name, uint nonce);\n    event UseToken(address sender, string name, uint8 durability);\n}\n",
  "sourcePath": "/Users/ihyeonsu/Documents/IntelliJ-workspace/TextAdventure/truffle/contracts/Metaphors/MetaphorsToken.sol",
  "compiler": {
    "name": "solc",
    "version": "0.5.0+commit.1d4f565a.Emscripten.clang"
  },
  "schemaVersion": "3.1.0",
  "updatedAt": "2022-02-25T05:41:29.638Z",
  "networkType": "ethereum",
  "devdoc": {
    "methods": {
      "approve(address,uint256)": {
        "details": "Approves another address to transfer the given token ID The zero address indicates there is no approved address. There can only be one approved address per token at a given time. Can only be called by the token owner or an approved operator.",
        "params": {
          "to": "address to be approved for the given token ID",
          "tokenId": "uint256 ID of the token to be approved"
        }
      },
      "balanceOf(address)": {
        "details": "Gets the balance of the specified address.",
        "params": {
          "owner": "address to query the balance of"
        },
        "return": "uint256 representing the amount owned by the passed address"
      },
      "getApproved(uint256)": {
        "details": "Gets the approved address for a token ID, or zero if no address set Reverts if the token ID does not exist.",
        "params": {
          "tokenId": "uint256 ID of the token to query the approval of"
        },
        "return": "address currently approved for the given token ID"
      },
      "isApprovedForAll(address,address)": {
        "details": "Tells whether an operator is approved by a given owner.",
        "params": {
          "operator": "operator address which you want to query the approval of",
          "owner": "owner address which you want to query the approval of"
        },
        "return": "bool whether the given operator is approved by the given owner"
      },
      "name()": {
        "details": "Gets the token name.",
        "return": "string representing the token name"
      },
      "ownerOf(uint256)": {
        "details": "Gets the owner of the specified token ID.",
        "params": {
          "tokenId": "uint256 ID of the token to query the owner of"
        },
        "return": "address currently marked as the owner of the given token ID"
      },
      "safeTransferFrom(address,address,uint256)": {
        "details": "Safely transfers the ownership of a given token ID to another address If the target address is a contract, it must implement `onERC721Received`, which is called upon a safe transfer, and return the magic value `bytes4(keccak256(\"onERC721Received(address,address,uint256,bytes)\"))`; otherwise, the transfer is reverted. Requires the msg.sender to be the owner, approved, or operator",
        "params": {
          "from": "current owner of the token",
          "to": "address to receive the ownership of the given token ID",
          "tokenId": "uint256 ID of the token to be transferred"
        }
      },
      "safeTransferFrom(address,address,uint256,bytes)": {
        "details": "Safely transfers the ownership of a given token ID to another address If the target address is a contract, it must implement `onERC721Received`, which is called upon a safe transfer, and return the magic value `bytes4(keccak256(\"onERC721Received(address,address,uint256,bytes)\"))`; otherwise, the transfer is reverted. Requires the msg.sender to be the owner, approved, or operator",
        "params": {
          "_data": "bytes data to send along with a safe transfer check",
          "from": "current owner of the token",
          "to": "address to receive the ownership of the given token ID",
          "tokenId": "uint256 ID of the token to be transferred"
        }
      },
      "setApprovalForAll(address,bool)": {
        "details": "Sets or unsets the approval of a given operator An operator is allowed to transfer all tokens of the sender on their behalf.",
        "params": {
          "approved": "representing the status of the approval to be set",
          "to": "operator address to set the approval"
        }
      },
      "supportsInterface(bytes4)": {
        "details": "See `IERC165.supportsInterface`.     * Time complexity O(1), guaranteed to always use less than 30 000 gas."
      },
      "symbol()": {
        "details": "Gets the token symbol.",
        "return": "string representing the token symbol"
      },
      "tokenByIndex(uint256)": {
        "details": "Gets the token ID at a given index of all the tokens in this contract Reverts if the index is greater or equal to the total number of tokens.",
        "params": {
          "index": "uint256 representing the index to be accessed of the tokens list"
        },
        "return": "uint256 token ID at the given index of the tokens list"
      },
      "tokenOfOwnerByIndex(address,uint256)": {
        "details": "Gets the token ID at a given index of the tokens list of the requested owner.",
        "params": {
          "index": "uint256 representing the index to be accessed of the requested tokens list",
          "owner": "address owning the tokens list to be accessed"
        },
        "return": "uint256 token ID at the given index of the tokens list owned by the requested address"
      },
      "tokenURI(uint256)": {
        "details": "Returns an URI for a given token ID. Throws if the token ID does not exist. May return an empty string.",
        "params": {
          "tokenId": "uint256 ID of the token to query"
        }
      },
      "totalSupply()": {
        "details": "Gets the total amount of tokens stored by the contract.",
        "return": "uint256 representing the total amount of tokens"
      },
      "transferFrom(address,address,uint256)": {
        "details": "Transfers the ownership of a given token ID to another address. Usage of this method is discouraged, use `safeTransferFrom` whenever possible. Requires the msg.sender to be the owner, approved, or operator.",
        "params": {
          "from": "current owner of the token",
          "to": "address to receive the ownership of the given token ID",
          "tokenId": "uint256 ID of the token to be transferred"
        }
      }
    }
  },
  "userdoc": {
    "methods": {}
  }
}