{
  "contractName": "MetaphorsTokenInfo",
  "abi": [
    {
      "inputs": [],
      "payable": false,
      "stateMutability": "nonpayable",
      "type": "constructor"
    },
    {
      "anonymous": false,
      "inputs": [
        {
          "indexed": false,
          "name": "name",
          "type": "string"
        },
        {
          "indexed": false,
          "name": "totalCount",
          "type": "uint16"
        },
        {
          "indexed": false,
          "name": "percentage",
          "type": "uint8"
        },
        {
          "indexed": false,
          "name": "maxDurability",
          "type": "uint8"
        },
        {
          "indexed": false,
          "name": "isFreeToken",
          "type": "bool"
        }
      ],
      "name": "CreateTokenInfo",
      "type": "event"
    },
    {
      "anonymous": false,
      "inputs": [
        {
          "indexed": false,
          "name": "name",
          "type": "string"
        },
        {
          "indexed": false,
          "name": "totalCount",
          "type": "uint16"
        },
        {
          "indexed": false,
          "name": "percentage",
          "type": "uint8"
        }
      ],
      "name": "EditTokenInfo",
      "type": "event"
    },
    {
      "constant": false,
      "inputs": [
        {
          "name": "_name",
          "type": "string"
        },
        {
          "name": "_totalCount",
          "type": "uint16"
        },
        {
          "name": "_percentage",
          "type": "uint8"
        },
        {
          "name": "_maxDurability",
          "type": "uint8"
        },
        {
          "name": "_isFreeToken",
          "type": "bool"
        }
      ],
      "name": "createTokenInfo",
      "outputs": [],
      "payable": false,
      "stateMutability": "nonpayable",
      "type": "function"
    },
    {
      "constant": true,
      "inputs": [
        {
          "name": "_name",
          "type": "string"
        }
      ],
      "name": "getTokenInfo",
      "outputs": [
        {
          "name": "",
          "type": "string"
        },
        {
          "name": "",
          "type": "uint16"
        },
        {
          "name": "",
          "type": "uint8"
        },
        {
          "name": "",
          "type": "uint8"
        },
        {
          "name": "",
          "type": "bool"
        }
      ],
      "payable": false,
      "stateMutability": "view",
      "type": "function"
    },
    {
      "constant": true,
      "inputs": [],
      "name": "getAllTokenInfoNames",
      "outputs": [
        {
          "name": "",
          "type": "string[]"
        }
      ],
      "payable": false,
      "stateMutability": "view",
      "type": "function"
    },
    {
      "constant": false,
      "inputs": [
        {
          "name": "_name",
          "type": "string"
        },
        {
          "name": "_totalCount",
          "type": "uint16"
        },
        {
          "name": "_percentage",
          "type": "uint8"
        }
      ],
      "name": "editTokenInfo",
      "outputs": [],
      "payable": false,
      "stateMutability": "nonpayable",
      "type": "function"
    }
  ],
  "bytecode": "0x608060405234801561001057600080fd5b50336000806101000a81548173ffffffffffffffffffffffffffffffffffffffff021916908373ffffffffffffffffffffffffffffffffffffffff16021790555061111c806100606000396000f3fe608060405260043610610062576000357c0100000000000000000000000000000000000000000000000000000000900463ffffffff16806337840d9e1461006757806356572a59146100925780638e0ad1cc146100bb578063ac228c72146100fc575b600080fd5b34801561007357600080fd5b5061007c610125565b6040516100899190610ed3565b60405180910390f35b34801561009e57600080fd5b506100b960048036036100b49190810190610ce0565b61020e565b005b3480156100c757600080fd5b506100e260048036036100dd9190810190610c38565b610548565b6040516100f3959493929190610f33565b60405180910390f35b34801561010857600080fd5b50610123600480360361011e9190810190610c79565b61085e565b005b60606002805480602002602001604051908101604052809291908181526020016000905b82821015610205578382906000526020600020018054600181600116156101000203166002900480601f0160208091040260200160405190810160405280929190818152602001828054600181600116156101000203166002900480156101f15780601f106101c6576101008083540402835291602001916101f1565b820191906000526020600020905b8154815290600101906020018083116101d457829003601f168201915b505050505081526020019060010190610149565b50505050905090565b6000809054906101000a900473ffffffffffffffffffffffffffffffffffffffff1673ffffffffffffffffffffffffffffffffffffffff163373ffffffffffffffffffffffffffffffffffffffff1614151561029f576040517f08c379a000000000000000000000000000000000000000000000000000000000815260040161029690610f8d565b60405180910390fd5b60008551141580156102b6575060008461ffff1614155b80156102c6575060008360ff1614155b80156102d6575060648360ff1611155b80156102e6575060008260ff1614155b8015610374575060006001866040518082805190602001908083835b6020831015156103275780518252602082019150602081019050602083039250610302565b6001836020036101000a0380198251168184511680821785525050505050509050019150509081526020016040518091039020600001805460018160011615610100020316600290049050145b151561037f57600080fd5b60a0604051908101604052808681526020018561ffff1681526020018460ff1681526020018360ff1681526020018215158152506001866040518082805190602001908083835b6020831015156103eb57805182526020820191506020810190506020830392506103c6565b6001836020036101000a0380198251168184511680821785525050505050509050019150509081526020016040518091039020600082015181600001908051906020019061043a929190610a81565b5060208201518160010160006101000a81548161ffff021916908361ffff16021790555060408201518160010160026101000a81548160ff021916908360ff16021790555060608201518160010160036101000a81548160ff021916908360ff16021790555060808201518160010160046101000a81548160ff0219169083151502179055509050506002859080600181540180825580915050906001820390600052602060002001600090919290919091509080519060200190610500929190610b01565b50507f3ffcd8b4a77d9c6e548071baf17975ef7e35084a2d89f5a19aff8a1b87edc0238585858585604051610539959493929190610f33565b60405180910390a15050505050565b60606000806000806001866040518082805190602001908083835b6020831015156105885780518252602082019150602081019050602083039250610563565b6001836020036101000a03801982511681845116808217855250505050505090500191505090815260200160405180910390206000016001876040518082805190602001908083835b6020831015156105f657805182526020820191506020810190506020830392506105d1565b6001836020036101000a038019825116818451168082178552505050505050905001915050908152602001604051809103902060010160009054906101000a900461ffff166001886040518082805190602001908083835b602083101515610673578051825260208201915060208101905060208303925061064e565b6001836020036101000a038019825116818451168082178552505050505050905001915050908152602001604051809103902060010160029054906101000a900460ff166001896040518082805190602001908083835b6020831015156106ef57805182526020820191506020810190506020830392506106ca565b6001836020036101000a038019825116818451168082178552505050505050905001915050908152602001604051809103902060010160039054906101000a900460ff1660018a6040518082805190602001908083835b60208310151561076b5780518252602082019150602081019050602083039250610746565b6001836020036101000a038019825116818451168082178552505050505050905001915050908152602001604051809103902060010160049054906101000a900460ff16848054600181600116156101000203166002900480601f0160208091040260200160405190810160405280929190818152602001828054600181600116156101000203166002900480156108445780601f1061081957610100808354040283529160200191610844565b820191906000526020600020905b81548152906001019060200180831161082757829003601f168201915b505050505094509450945094509450945091939590929450565b6000809054906101000a900473ffffffffffffffffffffffffffffffffffffffff1673ffffffffffffffffffffffffffffffffffffffff163373ffffffffffffffffffffffffffffffffffffffff161415156108ef576040517f08c379a00000000000000000000000000000000000000000000000000000000081526004016108e690610f8d565b60405180910390fd5b6000835114158015610906575060008261ffff1614155b8015610916575060008160ff1614155b8015610926575060648160ff1611155b151561093157600080fd5b816001846040518082805190602001908083835b60208310151561096a5780518252602082019150602081019050602083039250610945565b6001836020036101000a038019825116818451168082178552505050505050905001915050908152602001604051809103902060010160006101000a81548161ffff021916908361ffff160217905550806001846040518082805190602001908083835b6020831015156109f357805182526020820191506020810190506020830392506109ce565b6001836020036101000a038019825116818451168082178552505050505050905001915050908152602001604051809103902060010160026101000a81548160ff021916908360ff1602179055507f906fbea466281167dfdc48aa77a9e7d9891ccbfc889cea1cbe5b1777cd252232838383604051610a7493929190610ef5565b60405180910390a1505050565b828054600181600116156101000203166002900490600052602060002090601f016020900481019282601f10610ac257805160ff1916838001178555610af0565b82800160010185558215610af0579182015b82811115610aef578251825591602001919060010190610ad4565b5b509050610afd9190610b81565b5090565b828054600181600116156101000203166002900490600052602060002090601f016020900481019282601f10610b4257805160ff1916838001178555610b70565b82800160010185558215610b70579182015b82811115610b6f578251825591602001919060010190610b54565b5b509050610b7d9190610b81565b5090565b610ba391905b80821115610b9f576000816000905550600101610b87565b5090565b90565b6000610bb28235611068565b905092915050565b600082601f8301121515610bcd57600080fd5b8135610be0610bdb82610fda565b610fad565b91508082526020830160208301858383011115610bfc57600080fd5b610c0783828461108f565b50505092915050565b6000610c1c8235611074565b905092915050565b6000610c308235611082565b905092915050565b600060208284031215610c4a57600080fd5b600082013567ffffffffffffffff811115610c6457600080fd5b610c7084828501610bba565b91505092915050565b600080600060608486031215610c8e57600080fd5b600084013567ffffffffffffffff811115610ca857600080fd5b610cb486828701610bba565b9350506020610cc586828701610c10565b9250506040610cd686828701610c24565b9150509250925092565b600080600080600060a08688031215610cf857600080fd5b600086013567ffffffffffffffff811115610d1257600080fd5b610d1e88828901610bba565b9550506020610d2f88828901610c10565b9450506040610d4088828901610c24565b9350506060610d5188828901610c24565b9250506080610d6288828901610ba6565b9150509295509295909350565b6000610d7a82611013565b80845260208401935083602082028501610d9385611006565b60005b84811015610dcc578383038852610dae838351610e22565b9250610db982611034565b9150602088019750600181019050610d96565b508196508694505050505092915050565b610de681611041565b82525050565b6000610df782611029565b808452610e0b81602086016020860161109e565b610e14816110d1565b602085010191505092915050565b6000610e2d8261101e565b808452610e4181602086016020860161109e565b610e4a816110d1565b602085010191505092915050565b6000602282527f6d73672e73656e646572206d7573742062652073616d652077697468206f776e60208301527f65720000000000000000000000000000000000000000000000000000000000006040830152606082019050919050565b610ebe8161104d565b82525050565b610ecd8161105b565b82525050565b60006020820190508181036000830152610eed8184610d6f565b905092915050565b60006060820190508181036000830152610f0f8186610dec565b9050610f1e6020830185610eb5565b610f2b6040830184610ec4565b949350505050565b600060a0820190508181036000830152610f4d8188610dec565b9050610f5c6020830187610eb5565b610f696040830186610ec4565b610f766060830185610ec4565b610f836080830184610ddd565b9695505050505050565b60006020820190508181036000830152610fa681610e58565b9050919050565b6000604051905081810181811067ffffffffffffffff82111715610fd057600080fd5b8060405250919050565b600067ffffffffffffffff821115610ff157600080fd5b601f19601f8301169050602081019050919050565b6000602082019050919050565b600081519050919050565b600081519050919050565b600081519050919050565b6000602082019050919050565b60008115159050919050565b600061ffff82169050919050565b600060ff82169050919050565b60008115159050919050565b600061ffff82169050919050565b600060ff82169050919050565b82818337600083830152505050565b60005b838110156110bc5780820151818401526020810190506110a1565b838111156110cb576000848401525b50505050565b6000601f19601f830116905091905056fea265627a7a72305820b1e6f81d014d75a2a54525d6c20b324a908010c90f30c52fae8de215290312e86c6578706572696d656e74616cf50037",
  "source": "pragma solidity >=0.5.0 <0.9.0;\npragma experimental ABIEncoderV2;\n\ncontract MetaphorsTokenInfo {\n\n    modifier onlyOwner() {\n        require(msg.sender == owner, \"msg.sender must be same with owner\");\n        _;\n    }\n\n    // uint8 : 0~255\n    // uint16 : 0~65535\n    struct TokenInfo {\n        string name;\n        uint16 totalCount;\n        uint8 percentage;\n        uint8 maxDurability;\n        bool isFreeToken;\n    }\n\n    address internal owner;\n\n    mapping(string => TokenInfo) private tokenInfos;\n    string[] private tokenNames;\n\n    constructor() public {\n        owner = msg.sender;\n    }\n\n    function createTokenInfo(\n        string memory _name,\n        uint16 _totalCount,\n        uint8 _percentage,\n        uint8 _maxDurability,\n        bool _isFreeToken\n    ) public onlyOwner {\n        require(\n            bytes(_name).length != 0 &&\n            _totalCount != 0 &&\n            _percentage != 0 &&\n            _percentage <= 100 &&\n            _maxDurability != 0 &&\n            bytes(tokenInfos[_name].name).length == 0\n        );\n\n        tokenInfos[_name] = TokenInfo(\n            _name,\n            _totalCount,\n            _percentage,\n            _maxDurability,\n            _isFreeToken\n        );\n        tokenNames.push(_name);\n\n        emit CreateTokenInfo(_name, _totalCount, _percentage, _maxDurability, _isFreeToken);\n    }\n\n    function getTokenInfo(\n        string memory _name\n    ) public view returns (\n        string memory,\n        uint16,\n        uint8,\n        uint8,\n        bool\n    ) {\n        return (\n        tokenInfos[_name].name,\n        tokenInfos[_name].totalCount,\n        tokenInfos[_name].percentage,\n        tokenInfos[_name].maxDurability,\n        tokenInfos[_name].isFreeToken\n        );\n    }\n\n    function getAllTokenInfoNames() public view returns (\n        string[] memory\n    ) {\n        return tokenNames;\n    }\n\n    function editTokenInfo(\n        string memory _name,\n        uint16 _totalCount,\n        uint8 _percentage\n    ) public onlyOwner {\n        require(\n            bytes(_name).length != 0 &&\n            _totalCount != 0 &&\n            _percentage != 0 &&\n            _percentage <= 100\n        );\n\n        tokenInfos[_name].totalCount = _totalCount;\n        tokenInfos[_name].percentage = _percentage;\n\n        emit EditTokenInfo(_name, _totalCount, _percentage);\n    }\n\n    function isFreeToken(\n        string memory _name\n    ) internal view returns (\n        bool\n    ) {\n        return (\n        tokenInfos[_name].isFreeToken\n        );\n    }\n\n\n    event CreateTokenInfo(string name, uint16 totalCount, uint8 percentage, uint8 maxDurability, bool isFreeToken);\n    event EditTokenInfo(string name, uint16 totalCount, uint8 percentage);\n}\n",
  "sourcePath": "/Users/ihyeonsu/Documents/IntelliJ-workspace/TextAdventure/truffle/contracts/Metaphors/MetaphorsTokenInfo.sol",
  "compiler": {
    "name": "solc",
    "version": "0.5.0+commit.1d4f565a.Emscripten.clang"
  },
  "schemaVersion": "3.1.0",
  "updatedAt": "2022-02-25T05:34:15.241Z",
  "devdoc": {
    "methods": {}
  },
  "userdoc": {
    "methods": {}
  }
}