{
  "contractName": "TokenSales",
  "abi": [
    {
      "constant": true,
      "inputs": [],
      "name": "nftAddress",
      "outputs": [
        {
          "name": "",
          "type": "address"
        }
      ],
      "payable": false,
      "stateMutability": "view",
      "type": "function"
    },
    {
      "constant": true,
      "inputs": [
        {
          "name": "",
          "type": "uint256"
        }
      ],
      "name": "tokenPrice",
      "outputs": [
        {
          "name": "",
          "type": "uint256"
        }
      ],
      "payable": false,
      "stateMutability": "view",
      "type": "function"
    },
    {
      "inputs": [
        {
          "name": "_tokenAddress",
          "type": "address"
        }
      ],
      "payable": false,
      "stateMutability": "nonpayable",
      "type": "constructor"
    },
    {
      "anonymous": false,
      "inputs": [
        {
          "indexed": false,
          "name": "tokenId",
          "type": "uint256"
        },
        {
          "indexed": false,
          "name": "price",
          "type": "uint256"
        }
      ],
      "name": "SetForSale",
      "type": "event"
    },
    {
      "anonymous": false,
      "inputs": [
        {
          "indexed": false,
          "name": "sender",
          "type": "address"
        },
        {
          "indexed": false,
          "name": "value",
          "type": "uint256"
        },
        {
          "indexed": false,
          "name": "success",
          "type": "bool"
        },
        {
          "indexed": false,
          "name": "data",
          "type": "bytes"
        }
      ],
      "name": "PurchaseToken",
      "type": "event"
    },
    {
      "anonymous": false,
      "inputs": [
        {
          "indexed": false,
          "name": "tokenId",
          "type": "uint256"
        }
      ],
      "name": "RemoveTokenOnSales",
      "type": "event"
    },
    {
      "anonymous": false,
      "inputs": [
        {
          "indexed": false,
          "name": "tokenId",
          "type": "uint256"
        }
      ],
      "name": "UseTokenNotOnSale",
      "type": "event"
    },
    {
      "constant": false,
      "inputs": [
        {
          "name": "_tokenId",
          "type": "uint256"
        },
        {
          "name": "_price",
          "type": "uint256"
        }
      ],
      "name": "setForSale",
      "outputs": [],
      "payable": false,
      "stateMutability": "nonpayable",
      "type": "function"
    },
    {
      "constant": false,
      "inputs": [
        {
          "name": "_tokenId",
          "type": "uint256"
        }
      ],
      "name": "purchaseToken",
      "outputs": [],
      "payable": true,
      "stateMutability": "payable",
      "type": "function"
    },
    {
      "constant": false,
      "inputs": [
        {
          "name": "_tokenId",
          "type": "uint256"
        }
      ],
      "name": "removeTokenOnSales",
      "outputs": [],
      "payable": false,
      "stateMutability": "nonpayable",
      "type": "function"
    },
    {
      "constant": true,
      "inputs": [],
      "name": "getTokenIdOnSales",
      "outputs": [
        {
          "name": "",
          "type": "uint256[]"
        }
      ],
      "payable": false,
      "stateMutability": "view",
      "type": "function"
    },
    {
      "constant": true,
      "inputs": [
        {
          "name": "_tokenId",
          "type": "uint256"
        }
      ],
      "name": "getTokenPrice",
      "outputs": [
        {
          "name": "",
          "type": "uint256"
        }
      ],
      "payable": false,
      "stateMutability": "view",
      "type": "function"
    }
  ],
  "bytecode": "0x60806040523480156200001157600080fd5b5060405160208062001fb5833981018060405262000033919081019062000090565b806000806101000a81548173ffffffffffffffffffffffffffffffffffffffff021916908373ffffffffffffffffffffffffffffffffffffffff16021790555050620000f0565b6000620000888251620000dc565b905092915050565b600060208284031215620000a357600080fd5b6000620000b3848285016200007a565b91505092915050565b600073ffffffffffffffffffffffffffffffffffffffff82169050919050565b6000620000e982620000bc565b9050919050565b611eb580620001006000396000f3fe608060405260043610610083576000357c0100000000000000000000000000000000000000000000000000000000900463ffffffff16806317fcfe221461008857806354dc4465146100b15780635bf8633a146100dc578063c2db2c4214610107578063c457fb3714610123578063d4ddce8a14610160578063fb2e62811461019d575b600080fd5b34801561009457600080fd5b506100af60048036036100aa9190810190611578565b6101c6565b005b3480156100bd57600080fd5b506100c6610686565b6040516100d39190611a92565b60405180910390f35b3480156100e857600080fd5b506100f16106de565b6040516100fe9190611ab4565b60405180910390f35b610121600480360361011c9190810190611526565b610703565b005b34801561012f57600080fd5b5061014a60048036036101459190810190611526565b610f50565b6040516101579190611c31565b60405180910390f35b34801561016c57600080fd5b5061018760048036036101829190810190611526565b610f6d565b6040516101949190611c31565b60405180910390f35b3480156101a957600080fd5b506101c460048036036101bf9190810190611526565b610f85565b005b60008211151561020b576040517f08c379a000000000000000000000000000000000000000000000000000000000815260040161020290611c11565b60405180910390fd5b600081111515610250576040517f08c379a000000000000000000000000000000000000000000000000000000000815260040161024790611b11565b60405180910390fd5b3373ffffffffffffffffffffffffffffffffffffffff166000809054906101000a900473ffffffffffffffffffffffffffffffffffffffff1673ffffffffffffffffffffffffffffffffffffffff16636352211e846040518263ffffffff167c01000000000000000000000000000000000000000000000000000000000281526004016102dd9190611c31565b60206040518083038186803b1580156102f557600080fd5b505afa158015610309573d6000803e3d6000fd5b505050506040513d601f19601f8201168201806040525061032d91908101906113ef565b73ffffffffffffffffffffffffffffffffffffffff16141515610385576040517f08c379a000000000000000000000000000000000000000000000000000000000815260040161037c90611bd1565b60405180910390fd5b600060016000848152602001908152602001600020541415156103dd576040517f08c379a00000000000000000000000000000000000000000000000000000000081526004016103d490611b51565b60405180910390fd5b6060600060606000809054906101000a900473ffffffffffffffffffffffffffffffffffffffff1673ffffffffffffffffffffffffffffffffffffffff1663e4b50cb8866040518263ffffffff167c01000000000000000000000000000000000000000000000000000000000281526004016104599190611c31565b60006040518083038186803b15801561047157600080fd5b505afa158015610485573d6000803e3d6000fd5b505050506040513d6000823e3d601f19601f820116820180604052506104ae91908101906114a7565b92509250925060606000806000806000809054906101000a900473ffffffffffffffffffffffffffffffffffffffff1673ffffffffffffffffffffffffffffffffffffffff16638e0ad1cc896040518263ffffffff167c01000000000000000000000000000000000000000000000000000000000281526004016105329190611acf565b60006040518083038186803b15801561054a57600080fd5b505afa15801561055e573d6000803e3d6000fd5b505050506040513d6000823e3d601f19601f820116820180604052506105879190810190611418565b94509450945094509450600015158115151415156105da576040517f08c379a00000000000000000000000000000000000000000000000000000000081526004016105d190611b91565b60405180910390fd5b88600160008c81526020019081526020016000208190555060028a90806001815401808255809150509060018203906000526020600020016000909192909190915055506000600280549050905080600360008d8152602001908152602001600020819055507fa180caf90e149d715c7fc01ac2edc04692aff33f1896fec98fcc17cc9d3cb3d38b8b604051610671929190611c83565b60405180910390a15050505050505050505050565b606060028054806020026020016040519081016040528092919081815260200182805480156106d457602002820191906000526020600020905b8154815260200190600101908083116106c0575b5050505050905090565b6000809054906101000a900473ffffffffffffffffffffffffffffffffffffffff1681565b600081111515610748576040517f08c379a000000000000000000000000000000000000000000000000000000000815260040161073f90611c11565b60405180910390fd5b670de0b6b3a7640000600160008381526020019081526020016000205402341415156107a9576040517f08c379a00000000000000000000000000000000000000000000000000000000081526004016107a090611af1565b60405180910390fd5b3373ffffffffffffffffffffffffffffffffffffffff166000809054906101000a900473ffffffffffffffffffffffffffffffffffffffff1673ffffffffffffffffffffffffffffffffffffffff16636352211e836040518263ffffffff167c01000000000000000000000000000000000000000000000000000000000281526004016108369190611c31565b60206040518083038186803b15801561084e57600080fd5b505afa158015610862573d6000803e3d6000fd5b505050506040513d601f19601f8201168201806040525061088691908101906113ef565b73ffffffffffffffffffffffffffffffffffffffff16141515156108df576040517f08c379a00000000000000000000000000000000000000000000000000000000081526004016108d690611bf1565b60405180910390fd5b6060600060606000809054906101000a900473ffffffffffffffffffffffffffffffffffffffff1673ffffffffffffffffffffffffffffffffffffffff1663e4b50cb8856040518263ffffffff167c010000000000000000000000000000000000000000000000000000000002815260040161095b9190611c31565b60006040518083038186803b15801561097357600080fd5b505afa158015610987573d6000803e3d6000fd5b505050506040513d6000823e3d601f19601f820116820180604052506109b091908101906114a7565b92509250925060008060009054906101000a900473ffffffffffffffffffffffffffffffffffffffff1673ffffffffffffffffffffffffffffffffffffffff1663d52fcd2833866040518363ffffffff167c0100000000000000000000000000000000000000000000000000000000028152600401610a309291906119df565b60206040518083038186803b158015610a4857600080fd5b505afa158015610a5c573d6000803e3d6000fd5b505050506040513d601f19601f82011682018060405250610a80919081019061154f565b9050600081141515610ac7576040517f08c379a0000000000000000000000000000000000000000000000000000000008152600401610abe90611b31565b60405180910390fd5b60008060009054906101000a900473ffffffffffffffffffffffffffffffffffffffff1673ffffffffffffffffffffffffffffffffffffffff16636352211e876040518263ffffffff167c0100000000000000000000000000000000000000000000000000000000028152600401610b3f9190611c31565b60206040518083038186803b158015610b5757600080fd5b505afa158015610b6b573d6000803e3d6000fd5b505050506040513d601f19601f82011682018060405250610b8f91908101906113ef565b905060008060009054906101000a900473ffffffffffffffffffffffffffffffffffffffff1673ffffffffffffffffffffffffffffffffffffffff16636352211e886040518263ffffffff167c0100000000000000000000000000000000000000000000000000000000028152600401610c099190611c31565b60206040518083038186803b158015610c2157600080fd5b505afa158015610c35573d6000803e3d6000fd5b505050506040513d601f19601f82011682018060405250610c5991908101906113ef565b90508073ffffffffffffffffffffffffffffffffffffffff166108fc349081150290604051600060405180830381858888f19350505050158015610ca1573d6000803e3d6000fd5b506000809054906101000a900473ffffffffffffffffffffffffffffffffffffffff1673ffffffffffffffffffffffffffffffffffffffff166342842e0e83338a6040518463ffffffff167c0100000000000000000000000000000000000000000000000000000000028152600401610d1c93929190611a5b565b600060405180830381600087803b158015610d3657600080fd5b505af1158015610d4a573d6000803e3d6000fd5b50505050610d578761119b565b600060606000809054906101000a900473ffffffffffffffffffffffffffffffffffffffff1673ffffffffffffffffffffffffffffffffffffffff16898533604051602401610da893929190611c4c565b6040516020818303038152906040527fc89bd809000000000000000000000000000000000000000000000000000000007bffffffffffffffffffffffffffffffffffffffffffffffffffffffff19166020820180517bffffffffffffffffffffffffffffffffffffffffffffffffffffffff83818316178352505050506040518082805190602001908083835b602083101515610e5a5780518252602082019150602081019050602083039250610e35565b6001836020036101000a0380198251168184511680821785525050505050509050019150506000604051808303816000865af19150503d8060008114610ebc576040519150601f19603f3d011682016040523d82523d6000602084013e610ec1565b606091505b5091509150811515610f08576040517f08c379a0000000000000000000000000000000000000000000000000000000008152600401610eff90611b71565b60405180910390fd5b7f3c6dfd03362ab7eda718d92a2f2a809dcb828a6f726e7fc828cc4bedd2f4aaca33348484604051610f3d9493929190611a0f565b60405180910390a1505050505050505050565b600060016000838152602001908152602001600020549050919050565b60016020528060005260406000206000915090505481565b600081111515610fca576040517f08c379a0000000000000000000000000000000000000000000000000000000008152600401610fc190611c11565b60405180910390fd5b6000600160008381526020019081526020016000205414151515611023576040517f08c379a000000000000000000000000000000000000000000000000000000000815260040161101a90611bb1565b60405180910390fd5b3373ffffffffffffffffffffffffffffffffffffffff166000809054906101000a900473ffffffffffffffffffffffffffffffffffffffff1673ffffffffffffffffffffffffffffffffffffffff16636352211e836040518263ffffffff167c01000000000000000000000000000000000000000000000000000000000281526004016110b09190611c31565b60206040518083038186803b1580156110c857600080fd5b505afa1580156110dc573d6000803e3d6000fd5b505050506040513d601f19601f8201168201806040525061110091908101906113ef565b73ffffffffffffffffffffffffffffffffffffffff16141515611158576040517f08c379a000000000000000000000000000000000000000000000000000000000815260040161114f90611bd1565b60405180910390fd5b6111618161119b565b7fd35528d6c6d30a2a39e3f3c0135bd632eddeeb922f3cc6213341eb7d93d94863816040516111909190611c31565b60405180910390a150565b600060016000838152602001908152602001600020819055506000600160028054905003905060036000838152602001908152602001600020546002805490501415156112805760006001600360008581526020019081526020016000205403905060028281548110151561120c57fe5b906000526020600020015460028281548110151561122657fe5b9060005260206000200181905550600060028281548110151561124557fe5b906000526020600020015490506003600085815260200190815260200160002054600360008381526020019081526020016000208190555050505b60028181548110151561128f57fe5b906000526020600020016000905560028054809190600190036112b291906112d0565b50600060036000848152602001908152602001600020819055505050565b8154818355818111156112f7578183600052602060002091820191016112f691906112fc565b5b505050565b61131e91905b8082111561131a576000816000905550600101611302565b5090565b90565b600061132d8251611d9a565b905092915050565b60006113418251611dac565b905092915050565b600082601f830112151561135c57600080fd5b815161136f61136a82611cd9565b611cac565b9150808252602083016020830185838301111561138b57600080fd5b611396838284611e37565b50505092915050565b60006113ab8251611db8565b905092915050565b60006113bf8235611dc6565b905092915050565b60006113d38251611dc6565b905092915050565b60006113e78251611dd0565b905092915050565b60006020828403121561140157600080fd5b600061140f84828501611321565b91505092915050565b600080600080600060a0868803121561143057600080fd5b600086015167ffffffffffffffff81111561144a57600080fd5b61145688828901611349565b95505060206114678882890161139f565b9450506040611478888289016113db565b9350506060611489888289016113db565b925050608061149a88828901611335565b9150509295509295909350565b6000806000606084860312156114bc57600080fd5b600084015167ffffffffffffffff8111156114d657600080fd5b6114e286828701611349565b93505060206114f3868287016113db565b925050604084015167ffffffffffffffff81111561151057600080fd5b61151c86828701611349565b9150509250925092565b60006020828403121561153857600080fd5b6000611546848285016113b3565b91505092915050565b60006020828403121561156157600080fd5b600061156f848285016113c7565b91505092915050565b6000806040838503121561158b57600080fd5b6000611599858286016113b3565b92505060206115aa858286016113b3565b9150509250929050565b6115bd81611ddd565b82525050565b6115cc81611d52565b82525050565b6115db81611d40565b82525050565b60006115ec82611d12565b8084526020840193506115fe83611d05565b60005b82811015611630576116148683516119d0565b61161d82611d33565b9150602086019550600181019050611601565b50849250505092915050565b61164581611d64565b82525050565b600061165682611d1d565b80845261166a816020860160208601611e37565b61167381611e6a565b602085010191505092915050565b61168a81611def565b82525050565b600061169b82611d28565b8084526116af816020860160208601611e37565b6116b881611e6a565b602085010191505092915050565b6000603082527f6d73672e76616c7565206d7573742062652073616d65207769746820746f6b6560208301527f6e50726963655b5f746f6b656e49645d000000000000000000000000000000006040830152606082019050919050565b6000601c82527f5f7072696365206d75737420626520626967676572207468616e2030000000006020830152604082019050919050565b6000602882527f6d73672e73656e64657220616c7265616479206861732061206974656d206e6160208301527f6d65642073616d650000000000000000000000000000000000000000000000006040830152606082019050919050565b6000601e82527f746f6b656e50726963655b5f746f6b656e49645d206d757374206265203000006020830152604082019050919050565b6000603882527f6f776e6564546f6b656e4c69737420696e204d65746170686f7273546f6b656e60208301527f2072656d6f7665546f6b656e496e4c697374204552524f5200000000000000006040830152606082019050919050565b6000601082527f6974206973206672656520746f6b656e000000000000000000000000000000006020830152604082019050919050565b6000602282527f746f6b656e50726963655b5f746f6b656e49645d206d757374206e6f7420626560208301527f20300000000000000000000000000000000000000000000000000000000000006040830152606082019050919050565b6000602e82527f6f776e65724f66285f746f6b656e496429206d7573742062652073616d65207760208301527f697468206d73672e73656e6465720000000000000000000000000000000000006040830152606082019050919050565b6000603282527f6f776e65724f66285f746f6b656e496429206d757374206e6f7420626520736160208301527f6d652077697468206d73672e73656e64657200000000000000000000000000006040830152606082019050919050565b6000601e82527f5f746f6b656e4964206d75737420626520626967676572207468616e203000006020830152604082019050919050565b6119d981611d90565b82525050565b60006040820190506119f460008301856115b4565b8181036020830152611a068184611690565b90509392505050565b6000608082019050611a2460008301876115b4565b611a3160208301866119d0565b611a3e604083018561163c565b8181036060830152611a50818461164b565b905095945050505050565b6000606082019050611a7060008301866115d2565b611a7d60208301856115b4565b611a8a60408301846119d0565b949350505050565b60006020820190508181036000830152611aac81846115e1565b905092915050565b6000602082019050611ac96000830184611681565b92915050565b60006020820190508181036000830152611ae98184611690565b905092915050565b60006020820190508181036000830152611b0a816116c6565b9050919050565b60006020820190508181036000830152611b2a81611723565b9050919050565b60006020820190508181036000830152611b4a8161175a565b9050919050565b60006020820190508181036000830152611b6a816117b7565b9050919050565b60006020820190508181036000830152611b8a816117ee565b9050919050565b60006020820190508181036000830152611baa8161184b565b9050919050565b60006020820190508181036000830152611bca81611882565b9050919050565b60006020820190508181036000830152611bea816118df565b9050919050565b60006020820190508181036000830152611c0a8161193c565b9050919050565b60006020820190508181036000830152611c2a81611999565b9050919050565b6000602082019050611c4660008301846119d0565b92915050565b6000606082019050611c6160008301866119d0565b611c6e60208301856115d2565b611c7b60408301846115c3565b949350505050565b6000604082019050611c9860008301856119d0565b611ca560208301846119d0565b9392505050565b6000604051905081810181811067ffffffffffffffff82111715611ccf57600080fd5b8060405250919050565b600067ffffffffffffffff821115611cf057600080fd5b601f19601f8301169050602081019050919050565b6000602082019050919050565b600081519050919050565b600081519050919050565b600081519050919050565b6000602082019050919050565b6000611d4b82611d70565b9050919050565b6000611d5d82611d70565b9050919050565b60008115159050919050565b600073ffffffffffffffffffffffffffffffffffffffff82169050919050565b6000819050919050565b6000611da582611d70565b9050919050565b60008115159050919050565b600061ffff82169050919050565b6000819050919050565b600060ff82169050919050565b6000611de882611e13565b9050919050565b6000611dfa82611e01565b9050919050565b6000611e0c82611d70565b9050919050565b6000611e1e82611e25565b9050919050565b6000611e3082611d70565b9050919050565b60005b83811015611e55578082015181840152602081019050611e3a565b83811115611e64576000848401525b50505050565b6000601f19601f830116905091905056fea265627a7a7230582074f63e6c689662a942dd7d8ee1f8a9289e7e5fc2462b8d6934055395138d8cc56c6578706572696d656e74616cf50037",
  "source": "pragma solidity >=0.5.0 <0.9.0;\npragma experimental ABIEncoderV2;\nimport \"./MetaphorsToken.sol\";\n\ncontract TokenSales {\n    MetaphorsToken public nftAddress;\n\n    mapping(uint256 => uint256) public tokenPrice;\n\n    uint256[] tokensOnSale;\n    mapping(uint256 => uint256) tokenOnSaleIndex;\n\n    constructor(\n        address _tokenAddress\n    ) public {\n        nftAddress = MetaphorsToken(_tokenAddress);\n    }\n\n    function setForSale(\n        uint256 _tokenId,\n        uint256 _price\n    ) public {\n        require(_tokenId > 0, \"_tokenId must be bigger than 0\");\n        require(_price > 0, \"_price must be bigger than 0\");\n        require(nftAddress.ownerOf(_tokenId) == msg.sender, \"ownerOf(_tokenId) must be same with msg.sender\");\n        require(tokenPrice[_tokenId] == 0, \"tokenPrice[_tokenId] must be 0\");\n        (string memory name, uint8 durability, string memory imageURI)  = nftAddress.getToken(_tokenId);\n        (string memory _name, uint16 totalCount, uint8 percentage, uint8 maxDurability, bool isFreeToken) = nftAddress.getTokenInfo(name);\n        require(isFreeToken == false, \"it is free token\");\n\n        tokenPrice[_tokenId] = _price;\n\n        tokensOnSale.push(_tokenId);\n        uint256 index = tokensOnSale.length;\n        tokenOnSaleIndex[_tokenId] = index;\n\n        emit SetForSale(_tokenId, _price);\n    }\n\n    function purchaseToken(\n        uint256 _tokenId\n    ) public payable {\n        require(_tokenId > 0, \"_tokenId must be bigger than 0\");\n        require(msg.value == (tokenPrice[_tokenId] * 10 ** 18 ), \"msg.value must be same with tokenPrice[_tokenId]\");\n        require(nftAddress.ownerOf(_tokenId) != msg.sender, \"ownerOf(_tokenId) must not be same with msg.sender\");\n\n        (string memory name, uint8 durability, string memory imageURI)  = nftAddress.getToken(_tokenId);\n        uint256 id = nftAddress.getTokenId(msg.sender, name);\n\n        require(id == 0, \"msg.sender already has a item named same\");\n\n        address tokenSeller = nftAddress.ownerOf(_tokenId);\n\n        address payable payableTokenSeller = address(uint160(nftAddress.ownerOf(_tokenId)));\n        payableTokenSeller.transfer(msg.value);\n\n        nftAddress.safeTransferFrom(tokenSeller, msg.sender, _tokenId);\n\n        initData(_tokenId);\n\n        (bool success, bytes memory data) = address(nftAddress).call(\n            abi.encodeWithSignature(\"removeTokenInList(uint256,address,address)\", _tokenId, tokenSeller, msg.sender)\n        );\n        require(success, \"ownedTokenList in MetaphorsToken removeTokenInList ERROR\");\n\n        emit PurchaseToken(msg.sender, msg.value, success, data);\n    }\n\n    function removeTokenOnSales(\n        uint256 _tokenId\n    ) public {\n        require(_tokenId > 0, \"_tokenId must be bigger than 0\");\n        require(tokenPrice[_tokenId] != 0, \"tokenPrice[_tokenId] must not be 0\");\n        require(nftAddress.ownerOf(_tokenId) == msg.sender, \"ownerOf(_tokenId) must be same with msg.sender\");\n\n        initData(_tokenId);\n\n        emit RemoveTokenOnSales(_tokenId);\n    }\n\n    function getTokenIdOnSales() public view returns (\n        uint256[] memory\n    ) {\n        return tokensOnSale;\n    }\n\n\n    function getTokenPrice(\n        uint256 _tokenId\n    ) public view returns (\n        uint256\n    ) {\n        return tokenPrice[_tokenId];\n    }\n\n    function initData(uint256 _tokenId) private {\n        tokenPrice[_tokenId] = 0;\n\n        uint256 lastIndex = tokensOnSale.length - 1;\n\n        if (tokensOnSale.length != tokenOnSaleIndex[_tokenId]) {\n            uint256 index = tokenOnSaleIndex[_tokenId] - 1;\n\n            tokensOnSale[index] = tokensOnSale[lastIndex];\n\n            uint256 element = tokensOnSale[index];\n            tokenOnSaleIndex[element] = tokenOnSaleIndex[_tokenId];\n        }\n\n        delete tokensOnSale[lastIndex];\n        tokensOnSale.length--;\n        tokenOnSaleIndex[_tokenId] = 0;\n    }\n\n    event SetForSale(uint256 tokenId, uint256 price);\n    event PurchaseToken(address sender, uint value, bool success, bytes data);\n    event RemoveTokenOnSales(uint256 tokenId);\n    event UseTokenNotOnSale(uint256 tokenId);\n}\n",
  "sourcePath": "/Users/ihyeonsu/Documents/IntelliJ-workspace/TextAdventure/truffle/contracts/Metaphors/TokenSales.sol",
  "compiler": {
    "name": "solc",
    "version": "0.5.0+commit.1d4f565a.Emscripten.clang"
  },
  "schemaVersion": "3.1.0",
  "updatedAt": "2022-02-25T05:41:29.648Z",
  "networkType": "ethereum",
  "devdoc": {
    "methods": {}
  },
  "userdoc": {
    "methods": {}
  }
}